:020000040800F2
:100000000028002021170008F5140008FB14000840
:1000100001150008071500080D1500080000000074
:1000200000000000000000000000000013150008A0
:100030001F150008000000002B15000837150008E8
:100040006917000869170008691700086917000890
:100050006917000869170008691700086917000880
:100060006917000869170008691700086917000870
:100070006917000869170008691700086917000860
:100080006917000869170008691700086917000850
:100090006917000869170008691700086917000840
:1000A0006917000869170008691700086917000830
:1000B00045150008691700080000000069170008CE
:1000C0006917000800000000000000006917000820
:1000D0000000000069170008691700080000000010
:1000E0006917000869170008691700080000000078
:1000F0000000000000000000000000000000000000
:0C01000000000000000000005FF808F1A3
:10010C0010B5054C237833B9044B13B10448AFF345
:10011C0000800123237010BD64000020000000004B
:10012C00B02D000808B5034B1BB103490348AFF3CE
:10013C00008008BD0000000068000020B02D000801
:10014C0080B483B000AF7860044A7B68012142F828
:10015C00231000BF0C37BD4680BC704780000020C8
:10016C0080B483B000AF7860094A7B6852F82330C2
:10017C00012B06D1064A7B68002142F8231001238B
:10018C0000E0002318460C37BD4680BC704700BF0A
:10019C008000002080B582B000AF78604A4A7B684E
:1001AC0052F8232049497B6841F82320484A7B6850
:1001BC0052F8232044497B6841F823207B68002BAC
:1001CC000BD14FF48041434801F0B4FD034619466E
:1001DC003F4A7B6842F8231019E07B68012B0BD156
:1001EC004FF400413B4801F0A5FD03461946384A3F
:1001FC007B6842F823100AE04FF40051364801F0B6
:10020C0099FD03461946324A7B6842F823102F4A5F
:10021C007B6852F823202C497B6851F823309A4292
:10022C004ED1294A7B6852F8232029497B6851F822
:10023C0023309A4244D1294A7B6852F8232024491E
:10024C007B6851F823309A421AD0214A7B6852F8C5
:10025C00232022497B6841F823201D4A7B6852F8F1
:10026C002330002B08D17868FFF76AFF1C4A7B68A3
:10027C00C82142F8231023E01A4B00221A601FE019
:10028C00164A7B6852F82330002B19D1144A7B682C
:10029C0052F823305A1E12497B6841F82320104A29
:1002AC007B6852F82330002B0ADC0C4A7B68012156
:1002BC0042F823107B68012B02D10A4B01221A60F1
:1002CC0000BF0837BD4680BD0C0000200000002098
:1002DC0018000020000801400010014024000020FC
:1002EC00300000209000002080B582B000AF786014
:1002FC007B68092B00F2BC8101A252F823F000BFED
:10030C003503000889030008DD03000831040008E8
:10031C0085040008D90400082D0500088105000893
:10032C00D50500082906000800228021D34801F0D9
:10033C0018FD00224FF48071D04801F012FD00220C
:10034C004FF40071CD4801F00CFD00224FF4806198
:10035C00CA4801F006FD00224FF40061C74801F0C5
:10036C0000FD00224FF48051C44801F0FAFC012238
:10037C004FF40051C14801F0F4FC7AE101228021D4
:10038C00BE4801F0EEFC00224FF48071BB4801F036
:10039C00E8FC00224FF40071B84801F0E2FC0122A5
:1003AC004FF48061B54801F0DCFC01224FF4006190
:1003BC00B24801F0D6FC01224FF48051AF4801F055
:1003CC00D0FC01224FF40051AC4801F0CAFC50E1C2
:1003DC0000228021A94801F0C4FC00224FF4807156
:1003EC00A64801F0BEFC01224FF40071A34801F0B5
:1003FC00B8FC00224FF48061A04801F0B2FC00224E
:10040C004FF400619D4801F0ACFC01224FF4805187
:10041C009A4801F0A6FC00224FF40051974801F0D5
:10042C00A0FC26E100228021944801F09AFC0022D5
:10043C004FF48071914801F094FC00224FF400714C
:10044C008E4801F08EFC00224FF480618B4801F045
:10045C0088FC01224FF40061884801F082FC0122E3
:10046C004FF48051854801F07CFC00224FF4005180
:10047C00824801F076FCFCE0012280217F4801F0EB
:10048C0070FC00224FF480717C4801F06AFC002261
:10049C004FF40071794801F064FC01224FF4806143
:1004AC00764801F05EFC01224FF40061734801F0C4
:1004BC0058FC00224FF48051704801F052FC00228D
:1004CC004FF400516D4801F04CFCD2E00022802129
:1004DC006A4801F046FC01224FF48071674801F034
:1004EC0040FC00224FF40071644801F03AFC0022F9
:1004FC004FF48061614801F034FC01224FF400613B
:10050C005E4801F02EFC00224FF480515B4801F054
:10051C0028FC00224FF40051584801F022FCA8E0BE
:10052C0000228021554801F01CFC01224FF48071FF
:10053C00524801F016FC00224FF400714F4801F0B4
:10054C0010FC00224FF480614C4801F00AFC0022A0
:10055C004FF40061494801F004FC00224FF4805133
:10056C00464801F0FEFB00224FF40051434801F0D5
:10057C00F8FB7EE000228021404801F0F2FB0022D3
:10058C004FF480713D4801F0ECFB00224FF40071F8
:10059C003A4801F0E6FB01224FF48061374801F044
:1005AC00E0FB01224FF40061344801F0DAFB012238
:1005BC004FF48051314801F0D4FB01224FF400512B
:1005CC002E4801F0CEFB54E0002280212B4801F094
:1005DC00C8FB00224FF48071284801F0C2FB0022B6
:1005EC004FF40071254801F0BCFB00224FF48061F0
:1005FC00224801F0B6FB00224FF400611F4801F0C5
:10060C00B0FB00224FF480511C4801F0AAFB0022E1
:10061C004FF40051194801F0A4FB2AE0002280217C
:10062C00164801F09EFB00224FF48071134801F034
:10063C0098FB00224FF40071104801F092FB00224D
:10064C004FF480610D4801F08CFB01224FF40061E6
:10065C000A4801F086FB00224FF48051074801F054
:10066C0080FB00224FF40051044801F07AFB00E0BB
:10067C0000BF00BF0837BD4680BD00BF0008014069
:10068C0080B582B000AF78607B68032B5ED801A286
:10069C0052F823F0B1060008DB0600080507000835
:1006AC002F070008002201212E4801F05AFB0122DD
:1006BC0002212C4801F055FB01220421294801F0AC
:1006CC0050FB01220821274801F04BFB3FE001229F
:1006DC000121244801F045FB00220221214801F0B0
:1006EC0040FB012204211F4801F03BFB01220821A1
:1006FC001C4801F036FB2AE001220121194801F0C7
:10070C0030FB01220221174801F02BFB00220421AF
:10071C00144801F026FB01220821124801F021FBAC
:10072C0015E0012201210F4801F01BFB01220221DF
:10073C000C4801F016FB012204210A4801F011FBC0
:10074C0000220821074801F00CFB00E000BF064A1C
:10075C007B6852F823301846FFF7C6FD00BF0837F8
:10076C00BD4680BD000C01403C00002080B483B02D
:10077C0000AF786039607B68092B03DC1E4B0022CC
:10078C001A6008E07B681D4A82FB03129210DB178B
:10079C00D31A194A13607968184B83FB01239A10FA
:1007AC00CB17D21A13469B0013445B00CA1A124B88
:1007BC005A603B68092B03DC0F4B00229A6008E05F
:1007CC003B680E4A82FB03129210DB17D31A0A4ABB
:1007DC0093603968094B83FB01239A10CB17D21A0B
:1007EC0013469B0013445B00CA1A034BDA6000BF2C
:1007FC000C37BD4680BC70473C00002067666666BF
:10080C0080B500AFA54B1B68013B042B00F2B481F3
:10081C0001A252F823F000BF390800088108000833
:10082C0037090008F5090008C90A00089B4B022289
:10083C001A609B4B9B689B4A1360994B1B689A4AA6
:10084C001360984B1B68984A126811461846FFF7BC
:10085C008DFF944B1B684FF47A7202FB03F318461E
:10086C0000F026FD4FF47A7000F03EFD642000F09D
:10087C0057FD8AE100F070FE8C4B1B68012B16D1E2
:10088C00864B03221A60864B5B68864A1360854B45
:10089C001B684FF47A7202FB03F3184600F008FD54
:1008AC004FF47A7000F020FD642000F039FD804B8D
:1008BC001B68012B15D17B4B1B687B4A12681146B8
:1008CC001846FFF753FF774B1B68013B754A1360C3
:1008DC00754B1B68013B744A13604FF47A7000F03F
:1008EC0003FD744B1B68012B14D1734B1B6818460A
:1008FC00FFF7C6FE704B1B68022B03DD6E4B00220C
:10090C001A6004E06C4B1B6801336B4A1360C820FF
:10091C0000F006FD0020FFF723FC0346012B40F0FE
:10092C002D815E4B14221A6028E100F039FE5F4BDA
:10093C001B68012B1AD1594B04221A60584B1B68A7
:10094C00584A1360564B9B68574A1360564B1B68AA
:10095C004FF47A7202FB03F3184600F0A9FC4FF433
:10096C007A7000F0C1FC642000F0DAFC504B1B687C
:10097C00012B15D14B4B1B684B4A1268114618467C
:10098C00FFF7F4FE4FF47A7000F0AEFC454B1B6899
:10099C00013B444A1360444B1B68013B424A1360C1
:1009AC00444B1B68012B14D1434B1B681846FFF7B3
:1009BC0067FE414B1B68022B03DD3F4B00221A6084
:1009CC0004E03D4B1B6801333B4A1360642000F08C
:1009DC00A7FC0020FFF7C4FB0346012B40F0D0809E
:1009EC002E4B14221A60CBE000F0FEFD2F4B1B683F
:1009FC00012B16D1294B05221A60294B5B682A4A18
:100A0C001360294B1B684FF47A7202FB03F31846F0
:100A1C0000F04EFC4FF47A7000F066FC642000F09D
:100A2C007FFC234B1B68012B15D14FF47A7000F01F
:100A3C005BFC1C4B1B681C4A126811461846FFF7DE
:100A4C0095FE184B1B68013B164A1360164B1B682E
:100A5C00013B154A1360174B1B68012B14D1164B25
:100A6C001B681846FFF70CFE134B1B68022B03DDAB
:100A7C00114B00221A6004E00F4B1B6801330E4A25
:100A8C001360642000F04CFC0020FFF769FB034668
:100A9C00012B77D1014B14221A6073E0BC000020AB
:100AAC004C000020B0000020AC000020980000207A
:100ABC00A0000020A80000208C00002000F0B8FD51
:100ACC00334B1B68012B1AD1324B02221A60324B6A
:100ADC009B68324A1360304B1B68314A13602F4BB2
:100AEC001B684FF47A7202FB03F3184600F0E0FB2C
:100AFC004FF47A7000F0F8FB642000F011FC294BE5
:100B0C001B68012B15D14FF47A7000F0EDFB234BD1
:100B1C001B68234A126811461846FFF727FE1F4B25
:100B2C001B68013B1D4A13601D4B1B68013B1C4A93
:100B3C0013601D4B1B68012B14D11C4B1B681846F2
:100B4C00FFF79EFD194B1B68022B03DD174B002290
:100B5C001A6004E0154B1B680133144A13606420BF
:100B6C0000F0DEFB0020FFF7FBFA0346012B0BD154
:100B7C00084B14221A6007E000BF06E000BF04E037
:100B8C0000BF02E000BF00E000BF00BF80BD00BF9F
:100B9C0098000020BC0000204C000020B000002079
:100BAC00AC000020A0000020A80000208C00002039
:100BBC0080B500AFAC4B1B68143B052B00F20482D4
:100BCC0001A252F823F000BFED0B0008230C000823
:100BDC002F0D0008650D0008990E0008CF0E0008B7
:100BEC00002000F0FBFBA04B15221A60FA2000F04D
:100BFC007BFB9E4B01221A60642000F091FB9C4B06
:100C0C0000221A6000F038FD984B1B681946022030
:100C1C00FFF7ACFDDFE1974B1B68012B02D1924B28
:100C2C0001221A60944B1B68012B04D100F048FD83
:100C3C00FA2000F059FB914B1B68012B14D18C4B03
:100C4C001B681846FFF71CFD894B1B68022B03DD44
:100C5C00874B00221A6004E0854B1B680133844AE1
:100C6C001360642000F05CFB0020FFF779FA034668
:100C7C00012B02D17C4B16221A600120FFF770FA6F
:100C8C000346012B1BD17E4B1B68012B05D1774BE7
:100C9C001B680533754A136004E0744B1B68013301
:100CAC00724A1360714B1B68632B02DD6F4B012280
:100CBC001A606E4B1B6819460220FFF757FD022085
:100CCC00FFF74EFA0346012B40F08081674B1B68FF
:100CDC001946002000F092F96A4B1B68694A526869
:100CEC001146184600F09CF90346012B0BD101214B
:100CFC00012000F083F95D4B1B68013B1946022073
:100D0C0000F07CF908E0594B1A685E4B5B68D31A0B
:100D1C001946022000F072F941F2883000F0C8FA4E
:100D2C0054E1002000F05AFB4F4B17221A60FA20B6
:100D3C0000F0DAFA4D4B01221A60642000F0F0FA50
:100D4C004B4B00221A6000F097FC484B1B6819466D
:100D5C000320FFF70BFD3EE1464B1B68012B02D134
:100D6C00414B01221A60444B1B68012B04D100F04B
:100D7C00B5FCFA2000F0B8FA404B1B68012B14D1DB
:100D8C003B4B1B681846FFF77BFC394B1B68022B4F
:100D9C0003DD374B00221A6004E0354B1B6801332E
:100DAC00334A1360642000F0BBFA0020FFF7D8F937
:100DBC000346012B02D12C4B18221A600120FFF79D
:100DCC00CFF90346012B1BD12D4B1B68012B05D1F1
:100DDC00264B1B680533254A136004E0234B1B6824
:100DEC000133224A1360214B1B68632B02DD1F4B1E
:100DFC0001221A601D4B1B6819460320FFF7B6FC35
:100E0C000220FFF7ADF90346012B40F0E180174BB0
:100E1C001B681946012000F0F1F81A4B1B68194A9F
:100E2C0052681146184600F0FBF80346012B09D115
:100E3C00144B9A680D4B1B6813441946002000F0A4
:100E4C00DDF80CE00821104800F0A3FF0D4B1A68E8
:100E5C00064B1B68D31A1946022000F0CFF841F25A
:100E6C00883000F025FAB3E0BC000020B40000206C
:100E7C00B800002098000020A0000020A80000204E
:100E8C00900000204C00002000080140002000F0E1
:100E9C00A5FA524B19221A60FA2000F025FA504B91
:100EAC0001221A60642000F03BFA4E4B00221A60BB
:100EBC0000F0E2FB4A4B1B6819460420FFF756FC76
:100ECC0089E0494B1B68012B02D1444B01221A606B
:100EDC00464B1B68012B04D100F00EFCFA2000F0ED
:100EEC0003FA434B1B68012B14D13E4B1B6818466D
:100EFC00FFF7C6FB3B4B1B68022B03DD394B002273
:100F0C001A6004E0374B1B680133364A13606420C7
:100F1C0000F006FA0020FFF723F90346012B02D15B
:100F2C002E4B01221A600120FFF71AF90346012B00
:100F3C001BD1304B1B68012B05D1294B1B6805338A
:100F4C00274A136004E0264B1B680133244A1360C4
:100F5C00234B1B68632B02DD214B01221A60204BB3
:100F6C001B6819460420FFF701FC0220FFF7F8F874
:100F7C000346012B2ED11A4B1B681946022000F098
:100F8C003DF81D4B1B681C4A92681146184600F030
:100F9C0047F80346012B09D1174B5A68104B1B68B5
:100FAC0013441946002000F029F808E0124B1A6887
:100FBC000B4B1B68D31A1946012000F01FF841F2A5
:100FCC00883000F075F905E000BF04E000BF02E0D6
:100FDC0000BF00E000BF00BF80BD00BFBC00002010
:100FEC00B4000020B800002098000020A0000020D1
:100FFC00A8000020900000204C00002080B483B09A
:10100C0000AF7860396005497B683A6841F8232065
:10101C0000BF0C37BD4680BC704700BF4C000020A1
:10102C0080B483B000AF786039607A683B689A42CC
:10103C00D4BF01230023DBB218460C37BD4680BC5D
:10104C007047000080B500AF00F08AFB00F014F888
:10105C0000F09AF800F04CF8054801F0DFFA054B67
:10106C0001221A60FFF7A4FDFFF7CAFBFAE700BFE5
:10107C00C0000020BC00002080B590B000AF07F18C
:10108C00180328220021184601F084FE3B1D002283
:10109C001A605A609A60DA601A610223BB610123FC
:1010AC00BB621023FB6200237B6307F11803184615
:1010BC0000F088FE0346002B01D000F0F4F80F235B
:1010CC007B600023BB600023FB6000233B6100239B
:1010DC007B613B1D0021184601F0F4F80346002B00
:1010EC0001D000F0E0F800BF4037BD4680BD0000E5
:1010FC0080B586B000AF07F1080300221A605A6071
:10110C009A60DA603B4600221A605A601D4B4FF021
:10111C0080421A601B4B41F63F725A60194B0022F9
:10112C009A60184B0922DA60164B00221A61154B93
:10113C0000229A61134801F021FA0346002B01D0DA
:10114C0000F0B1F84FF48053BB6007F10803194667
:10115C000C4801F0B7FB0346002B01D000F0A3F8BC
:10116C0000233B6000237B603B461946054801F099
:10117C0083FD0346002B01D000F095F800BF183713
:10118C00BD4680BDC000002080B588B000AF07F11F
:10119C00100300221A605A609A60DA60344B9B6923
:1011AC00334A43F010039361314B9B6903F01003F6
:1011BC00FB60FB682E4B9B692D4A43F00403936143
:1011CC002B4B9B6903F00403BB60BB68284B9B69EA
:1011DC00274A43F008039361254B9B6903F00803EE
:1011EC007B607B68002243F6FE71224800F0B9FD5B
:1011FC0000220F21204800F0B4FD4FF400533B6156
:10120C0000237B610123BB6107F1100319461B48C6
:10121C0000F016FC43F6FE733B6101237B61002357
:10122C00BB610223FB6107F110031946114800F062
:10123C0007FC0F233B6101237B610023BB6102236D
:10124C00FB6107F1100319460B4800F0F9FB4FF452
:10125C0040433B6100237B610123BB6107F1100319
:10126C001946044800F0ECFB00BF2037BD4680BD9A
:10127C000010024000080140000C01400010014029
:10128C0080B582B000AF786000F066F80020FEF701
:10129C0081FF0120FEF77EFF0220FEF77BFF00BFDF
:1012AC000837BD4680BD80B400AF72B600BFFEE704
:1012BC0080B483B000AF78607B68084A82FB03126D
:1012CC009210DB17D31A064A1360064B00221A60E1
:1012DC0000BF0C37BD4680BC704700BF67666666B2
:1012EC00940000209800002080B483B000AF786098
:1012FC007B68084A82FB03129210DB17D31A064A4A
:10130C001360064B00221A6000BF0C37BD4680BC30
:10131C00704700BF676666669C000020A000002036
:10132C0080B483B000AF78607B68084A82FB0312FC
:10133C009210DB17D31A064A1360064B00221A6070
:10134C0000BF0C37BD4680BC704700BF6766666641
:10135C00A4000020A800002080B400AF194B1B682B
:10136C00002B0BDD174B1B68013B164A1360154B0A
:10137C001B68002B02DC144B01221A60134B1B68F8
:10138C00002B0BDD114B1B68013B104A13600F4BFC
:10139C001B68002B02DC0E4B01221A600D4B1B68E4
:1013AC00002B0BDD0B4B1B68013B0A4A1360094BEE
:1013BC001B68002B02DC084B01221A6000BFBD46E3
:1013CC0080BC704794000020980000209C000020F6
:1013DC00A0000020A4000020A800002080B483B04E
:1013EC0000AF78607B68002B06D10E4B00221A6090
:1013FC000D4B00221A600FE07B68012B06D10B4BC2
:10140C0000221A600A4B00221A6005E0094B0022E8
:10141C001A60094B00221A6000BF0C37BD4680BC15
:10142C00704700BF9800002094000020A00000200E
:10143C009C000020A8000020A400002080B485B0EF
:10144C0000AF154B9B69144A43F001039361124B97
:10145C009B6903F00103BB60BB680F4BDB690E4A51
:10146C0043F08053D3610C4BDB6903F080537B60FA
:10147C007B680A4B5B68FB60FB6823F0E063FB60F6
:10148C00FB6843F08063FB60044AFB68536000BF59
:10149C001437BD4680BC704700100240000001406C
:1014AC0080B584B000AF78607B681B68B3F1804F67
:1014BC0013D10C4BDB690B4A43F00103D361094B8D
:1014CC00DB6903F00103FB60FB68002200211C2098
:1014DC0000F07FFA1C2000F098FA00BF1037BD46D0
:1014EC0080BD00BF0010024080B400AFFEE780B4A6
:1014FC0000AFFEE780B400AFFEE780B400AFFEE7BC
:10150C0080B400AFFEE780B400AF00BFBD4680BC26
:10151C00704780B400AF00BFBD4680BC704780B43C
:10152C0000AF00BFBD4680BC704780B500AF00F077
:10153C005DF900BF80BD000080B500AF024801F02E
:10154C00B9F800BF80BD00BFC000002080B400AF60
:10155C0000BFBD4680BC704780B500AF002208219B
:10156C000E4800F0FEFB012204210C4800F0F9FBB0
:10157C0001220221094800F0F4FB01224021074816
:10158C0000F0EFFB01222021044800F0EAFB0022CE
:10159C001021024800F0E5FB00BF80BD00080140AF
:1015AC0080B500AF012208210E4800F0DAFB0022C2
:1015BC0004210C4800F0D5FB01220221094800F05F
:1015CC00D0FB01224021074800F0CBFB0122202157
:1015DC00044800F0C6FB00221021024800F0C1FBB9
:1015EC0000BF80BD0008014080B500AF012208217A
:1015FC000E4800F0B6FB012204210C4800F0B1FBB0
:10160C0000220221094800F0ACFB002240210748CF
:10161C0000F0A7FB01222021044800F0A2FB0122CC
:10162C001021024800F09DFB00BF80BD0008014066
:10163C0080B500AF012208210E4800F092FB012278
:10164C0004210C4800F08DFB00220221094800F017
:10165C0088FB01224021074800F083FB0022202157
:10166C00044800F07EFB01221021024800F079FBB7
:10167C0000BF80BD0008014080B500AF01220821E9
:10168C000E4800F06EFB012204210C4800F069FBAF
:10169C0001220221094800F064FB01224021074885
:1016AC0000F05FFB01222021044800F05AFB0122CC
:1016BC001021024800F055FB00BF80BD000801401E
:1016CC0080B500AF0221044800F063FB10210248F2
:1016DC0000F05FFB00BF80BD0008014080B500AF8B
:1016EC000421044800F055FB2021024800F051FB76
:1016FC0000BF80BD0008014080B500AF0821044840
:10170C0000F047FB4021024800F043FB00BF80BDC6
:10171C0000080140FFF71AFF0B480C490C4A002344
:10172C0002E0D458C4500433C4188C42F9D3094A8B
:10173C00094C002301E013600432A242FBD301F0F8
:10174C0005FBFFF77FFC70470000002064000020C1
:10175C00F42D0008640000200C010020FEE70000BE
:10176C0080B500AF084B1B68074A43F010031360A9
:10177C00032000F023F90F2000F008F8FFF75EFEBD
:10178C000023184680BD00BF0020024080B582B007
:10179C0000AF7860124B1A68124B1B7819464FF445
:1017AC007A73B3FBF1F3B2FBF3F3184600F03BF999
:1017BC000346002B01D001230EE07B680F2B0AD8C7
:1017CC00002279684FF0FF3000F003F9064A7B687D
:1017DC001360002300E0012318460837BD4680BD86
:1017EC0058000020600000205C00002080B400AF96
:1017FC00054B1B781A46054B1B681344034A1360B0
:10180C0000BFBD4680BC704760000020080100206E
:10181C0080B400AF024B1B681846BD4680BC7047B5
:10182C000801002080B485B000AF78607B6803F0BD
:10183C000703FB600C4BDB68BB60BA684FF6FF0319
:10184C001340BB60FB681A02BB68134343F0BF63D1
:10185C0043F40033BB60044ABB68D36000BF143749
:10186C00BD4680BC704700BF00ED00E080B400AF07
:10187C00044BDB681B0A03F007031846BD4680BC0B
:10188C00704700BF00ED00E080B483B000AF0346AA
:10189C00FB7197F90730002B0BDBFB7903F01F0270
:1018AC00064997F907305B09012000FA02F241F86A
:1018BC00232000BF0C37BD4680BC704700E100E020
:1018CC0080B483B000AF03463960FB7197F90730E1
:1018DC00002B0ADB3B68DAB20C4997F9073012018E
:1018EC00D2B20B4483F800230AE03B68DAB2084911
:1018FC00FB7903F00F03043B1201D2B20B441A76AE
:10190C0000BF0C37BD4680BC704700BF00E100E053
:10191C0000ED00E080B489B000AFF860B9607A6087
:10192C00FB6803F00703FB61FB69C3F10703042B9E
:10193C0028BF0423BB61FB690433062B02D9FB6966
:10194C00033B00E000237B614FF0FF32BB6902FADE
:10195C0003F3DA43BB681A407B699A404FF0FF31BE
:10196C007B6901FA03F3D9437B680B401343184698
:10197C002437BD4680BC704780B582B000AF78601C
:10198C007B68013BB3F1807F01D301230FE00A4A4E
:10199C007B68013B53600F214FF0FF30FFF790FF46
:1019AC00054B00229A60044B07221A60002318464C
:1019BC000837BD4680BD00BF10E000E080B582B0A6
:1019CC0000AF78607868FFF72DFF00BF0837BD4681
:1019DC0080BD80B586B000AF0346B9607A60FB73FA
:1019EC0000237B61FFF742FF78617A68B9687869F8
:1019FC00FFF790FF024697F90F3011461846FFF794
:101A0C005FFF00BF1837BD4680BD80B582B000AF08
:101A1C000346FB7197F907301846FFF735FF00BFF7
:101A2C000837BD4680BD80B582B000AF786078685D
:101A3C00FFF7A2FF034618460837BD4680BD0000DD
:101A4C0080B48BB000AF7860396000237B620023D8
:101A5C003B6248E101227B6A02FA03F3FB613B68BB
:101A6C001B68FA691340BB61BA69FB699A4240F082
:101A7C0037813B685B68A34A93425ED0A14A93428C
:101A8C0075D8A14A934258D09F4A93426FD89F4A27
:101A9C00934252D09D4A934269D89D4A93424CD06E
:101AAC009B4A934263D89B4A934246D0994A9342AD
:101ABC005DD8122B2AD8122B59D801A252F823F038
:101ACC00471B0008211B0008331B0008751B00086E
:101ADC007B1B00087B1B00087B1B00087B1B000882
:101AEC007B1B00087B1B00087B1B00087B1B000872
:101AFC007B1B00087B1B00087B1B00087B1B000862
:101B0C007B1B0008291B00083D1B0008824A9342DE
:101B1C0013D02CE03B68DB683B6229E03B68DB6858
:101B2C0004333B6224E03B68DB6808333B621FE014
:101B3C003B68DB680C333B621AE03B689B68002B0C
:101B4C0002D104233B6213E03B689B68012B05D157
:101B5C0008233B627B68FA691A6109E008233B623F
:101B6C007B68FA695A6103E000233B6200E000BF26
:101B7C00BB69FF2B01D87B6801E07B6804337B6178
:101B8C00BB69FF2B02D87B6A9B0002E07B6A083B97
:101B9C009B003B617B691A680F213B6901FA03F3D7
:101BAC00DB431A40396A3B6901FA03F31A437B6938
:101BBC001A603B685B6803F08053002B00F0908048
:101BCC00564B9B69554A43F001039361534B9B69F8
:101BDC0003F00103BB60BB68514A7B6A9B0802336C
:101BEC0052F82330FB607B6A03F003039B000F2247
:101BFC0002FA03F3DB43FA681340FB607B68494A43
:101C0C0093420DD07B68484A934207D07B68474A81
:101C1C00934201D1022304E0032302E0012300E0FC
:101C2C0000237A6A02F0030292009340FA6813438D
:101C3C00FB603B497B6A9B080233FA6841F823201E
:101C4C003B685B6803F48013002B06D0384B9A6812
:101C5C003749BB6913438B6006E0354B9A68BB6907
:101C6C00DB43334913408B603B685B6803F4001320
:101C7C00002B06D02E4BDA682D49BB691343CB6081
:101C8C0006E02B4BDA68BB69DB4329491340CB6078
:101C9C003B685B6803F40033002B06D0244B5A6876
:101CAC002349BB6913434B6006E0214B5A68BB695F
:101CBC00DB431F4913404B603B685B6803F4803384
:101CCC00002B06D01A4B1A681949BB6913430B60D9
:101CDC0006E0174B1A68BB69DB43154913400B60D0
:101CEC007B6A01337B623B681A687B6A22FA03F3D6
:101CFC00002B7FF4AFAE00BF00BF2C37BD4680BCBD
:101D0C00704700BF0000321000003110000022109C
:101D1C0000002110000012100000111000100240F1
:101D2C000000014000080140000C0140001001407F
:101D3C000004014080B485B000AF78600B467B8016
:101D4C007B689A687B881340002B02D00123FB73BD
:101D5C0001E00023FB73FB7B18461437BD4680BCA7
:101D6C00704780B483B000AF78600B467B8013461D
:101D7C007B707B78002B03D07A887B681A6103E038
:101D8C007B881A047B681A6100BF0C37BD4680BC87
:101D9C00704780B485B000AF78600B467B807B6861
:101DAC00DB68FB607A88FB6813401A04FB68D94334
:101DBC007B880B401A437B681A6100BF1437BD4601
:101DCC0080BC704780B586B000AF78607B68002B14
:101DDC0001D101236CE27B681B6803F00103002B2B
:101DEC0000F08780924B5B6803F00C03042B0CD043
:101DFC008F4B5B6803F00C03082B12D18C4B5B6888
:101E0C0003F48033B3F5803F0BD1894B1B6803F48B
:101E1C000033002B6CD07B685B68002B68D10123EE
:101E2C0046E27B685B68B3F5803F06D1804B1B684C
:101E3C007F4A43F4803313602EE07B685B68002B91
:101E4C000CD17B4B1B687A4A23F480331360784B9C
:101E5C001B68774A23F4802313601DE07B685B6862
:101E6C00B3F5A02F0CD1724B1B68714A43F480233D
:101E7C0013606F4B1B686E4A43F4803313600BE0A6
:101E8C006B4B1B686A4A23F480331360684B1B68E6
:101E9C00674A23F4802313607B685B68002B13D0A4
:101EAC00FFF7B6FC386108E0FFF7B2FC02463B696D
:101EBC00D31A642B01D90323FAE15D4B1B6803F49D
:101ECC000033002BF0D014E0FFF7A2FC386108E0DF
:101EDC00FFF79EFC02463B69D31A642B01D90323FE
:101EEC00E6E1534B1B6803F40033002BF0D100E008
:101EFC0000BF7B681B6803F00203002B63D04C4BC4
:101F0C005B6803F00C03002B0BD0494B5B6803F0B0
:101F1C000C03082B1CD1464B5B6803F48033002B5D
:101F2C0016D1434B1B6803F00203002B05D07B68D2
:101F3C001B69012B01D00123BAE13D4B1B6823F037
:101F4C00F8027B685B69DB00394913430B603AE0AC
:101F5C007B681B69002B20D0364B01221A60FFF7DF
:101F6C0057FC386108E0FFF753FC02463B69D31A73
:101F7C00022B01D903239BE12D4B1B6803F00203B9
:101F8C00002BF0D02A4B1B6823F0F8027B685B69AE
:101F9C00DB00274913430B6015E0264B00221A6027
:101FAC00FFF736FC386108E0FFF732FC02463B696C
:101FBC00D31A022B01D903237AE11D4B1B6803F0C2
:101FCC000203002BF0D17B681B6803F00803002B85
:101FDC003AD07B689B69002B19D0174B01221A60F1
:101FEC00FFF716FC386108E0FFF712FC02463B696C
:101FFC00D31A022B01D903235AE10D4B5B6A03F070
:10200C000203002BF0D0012000F09AFA1CE00A4BDE
:10201C0000221A60FFF7FCFB38610FE0FFF7F8FBBA
:10202C0002463B69D31A022B08D9032340E100BFB7
:10203C000010024000004242800442429E4B5B6A08
:10204C0003F00203002BE9D17B681B6803F0040347
:10205C00002B00F0A6800023FB75974BDB6903F087
:10206C008053002B0DD1944BDB69934A43F0805382
:10207C00D361914BDB6903F08053BB60BB680123D8
:10208C00FB758E4B1B6803F48073002B18D18B4BA4
:10209C001B688A4A43F480731360FFF7B9FB3861FD
:1020AC0008E0FFF7B5FB02463B69D31A642B01D954
:1020BC000323FDE0814B1B6803F48073002BF0D0ED
:1020CC007B68DB68012B06D17B4B1B6A7A4A43F099
:1020DC00010313622DE07B68DB68002B0CD1764B7F
:1020EC001B6A754A23F001031362734B1B6A724A15
:1020FC0023F0040313621CE07B68DB68052B0CD116
:10210C006D4B1B6A6C4A43F0040313626A4B1B6AE7
:10211C00694A43F0010313620BE0674B1B6A664A82
:10212C0023F001031362644B1B6A634A23F004031C
:10213C0013627B68DB68002B15D0FFF769FB3861F5
:10214C000AE0FFF765FB02463B69D31A41F288327D
:10215C00934201D90323ABE0574B1B6A03F00203F4
:10216C00002BEED014E0FFF753FB38610AE0FFF7C9
:10217C004FFB02463B69D31A41F28832934201D994
:10218C00032395E04C4B1B6A03F00203002BEED1AA
:10219C00FB7D012B05D1484BDB69474A23F080536B
:1021AC00D3617B68DB69002B00F08180424B5B685C
:1021BC0003F00C03082B61D07B68DB69022B46D142
:1021CC003F4B00221A60FFF723FB386108E0FFF752
:1021DC001FFB02463B69D31A022B01D9032367E08C
:1021EC00354B1B6803F00073002BF0D17B681B6A26
:1021FC00B3F5803F08D1304B5B6823F400327B6829
:10220C009B682D4913434B602B4B5B6823F4741272
:10221C007B68196A7B685B6A0B43274913434B60E5
:10222C00274B01221A60FFF7F3FA386108E0FFF739
:10223C00EFFA02463B69D31A022B01D9032337E08C
:10224C001D4B1B6803F00073002BF0D02FE01C4BD0
:10225C0000221A60FFF7DCFA386108E0FFF7D8FAC1
:10226C0002463B69D31A022B01D9032320E0124BFF
:10227C001B6803F00073002BF0D118E07B68DB695E
:10228C00012B01D1012313E00B4B5B68FB60FB6856
:10229C0003F480327B681B6A9A4206D1FB6803F414
:1022AC0070127B685B6A9A4201D0012300E0002324
:1022BC0018461837BD4680BD001002400070004023
:1022CC006000424280B584B000AF786039607B68B2
:1022DC00002B01D10123D0E06A4B1B6803F00703EC
:1022EC003A689A4210D9674B1B6823F0070265497C
:1022FC003B6813430B60634B1B6803F007033A689E
:10230C009A4201D00123B8E07B681B6803F00203FA
:10231C00002B20D07B681B6803F00403002B05D036
:10232C00594B5B68584A43F4E06353607B681B6805
:10233C0003F00803002B05D0534B5B68524A43F45F
:10234C0060535360504B5B6823F0F0027B689B68D2
:10235C004D4913434B607B681B6803F00103002B52
:10236C0040D07B685B68012B07D1474B1B6803F49B
:10237C000033002B15D101237FE07B685B68022BB7
:10238C0007D1414B1B6803F00073002B09D10123CB
:10239C0073E03D4B1B6803F00203002B01D10123BA
:1023AC006BE0394B5B6823F003027B685B68364952
:1023BC0013434B60FFF72CFAF8600AE0FFF728FA9A
:1023CC000246FB68D31A41F28832934201D90323A7
:1023DC0053E02D4B5B6803F00C027B685B689B0041
:1023EC009A42EBD1274B1B6803F007033A689A42D9
:1023FC0010D2244B1B6823F0070222493B6813437D
:10240C000B60204B1B6803F007033A689A4201D01B
:10241C00012332E07B681B6803F00403002B08D017
:10242C00194B5B6823F4E0627B68DB681649134345
:10243C004B607B681B6803F00803002B09D0124B20
:10244C005B6823F460527B681B69DB000E49134305
:10245C004B6000F021F802460B4B5B681B0903F044
:10246C000F030A49CB5C22FA03F3094A1360094BA8
:10247C001B681846FFF78AF9002318461037BD462B
:10248C0080BD00BF0020024000100240C82D000893
:10249C00580000205C00002080B487B000AF0023FF
:1024AC00FB600023BB6000237B6100237B60002367
:1024BC003B611E4B5B68FB60FB6803F00C03042B59
:1024CC0002D0082B03D027E0194B3B6127E0FB68B7
:1024DC009B0C03F00F03174AD35C7B60FB6803F47F
:1024EC008033002B10D0114B5B685B0C03F00103A5
:1024FC00114AD35CBB607B680D4A02FB03F2BB68DC
:10250C00B2FBF3F37B6104E07B680C4A02FB03F340
:10251C007B617B693B6102E0054B3B6100BF3B6922
:10252C0018461C37BD4680BC704700BF00100240E7
:10253C0000127A00D82D0008E82D000800093D0093
:10254C0080B485B000AF78600A4B1B680A4AA2FBC6
:10255C0003235B0A7A6802FB03F3FB6000BFFB6892
:10256C005A1EFA60002BF9D100BF00BF1437BD46CC
:10257C0080BC704758000020D34D621080B582B0EB
:10258C0000AF78607B68002B01D1012341E07B68B0
:10259C0093F83D30DBB2002B06D17B68002283F828
:1025AC003C207868FEF77CFF7B68022283F83D2094
:1025BC007B681A687B6804331946104600F06EFA83
:1025CC007B68012283F846207B68012283F83E2039
:1025DC007B68012283F83F207B68012283F840202E
:1025EC007B68012283F841207B68012283F842201A
:1025FC007B68012283F843207B68012283F8442006
:10260C007B68012283F845207B68012283F83D20FA
:10261C00002318460837BD4680BD000080B485B045
:10262C0000AF78607B6893F83D30DBB2012B01D0B2
:10263C00012335E07B68022283F83D207B681B6810
:10264C00DA687B681B6842F00102DA607B681B6801
:10265C00164A934209D07B681B68B3F1804F04D0B3
:10266C007B681B68124A934211D17B681B689B687C
:10267C0003F00703FB60FB68062B10D07B681B681C
:10268C001A687B681B6842F001021A6007E07B68DD
:10269C001B681A687B681B6842F001021A600023F1
:1026AC0018461437BD4680BC704700BF002C014053
:1026BC000004004080B582B000AF78607B681B6876
:1026CC001B6903F00203022B22D17B681B68DB68B9
:1026DC0003F00203022B1BD17B681B686FF0020214
:1026EC001A617B6801221A777B681B689B6903F06F
:1026FC000303002B03D0786800F0B4F905E0786888
:10270C0000F0A7F9786800F0B6F97B6800221A7718
:10271C007B681B681B6903F00403042B22D17B68C4
:10272C001B68DB6803F00403042B1BD17B681B685C
:10273C006FF004021A617B6802221A777B681B68AF
:10274C009B6903F44073002B03D0786800F08AF97E
:10275C0005E0786800F07DF9786800F08CF97B680A
:10276C0000221A777B681B681B6903F00803082B8F
:10277C0022D17B681B68DB6803F00803082B1BD194
:10278C007B681B686FF008021A617B6804221A7759
:10279C007B681B68DB6903F00303002B03D07868AC
:1027AC0000F060F905E0786800F053F9786800F003
:1027BC0062F97B6800221A777B681B681B6903F03F
:1027CC001003102B22D17B681B68DB6803F010030D
:1027DC00102B1BD17B681B686FF010021A617B6891
:1027EC0008221A777B681B68DB6903F44073002BA3
:1027FC0003D0786800F036F905E0786800F029F924
:10280C00786800F038F97B6800221A777B681B68BF
:10281C001B6903F00103012B0ED17B681B68DB687D
:10282C0003F00103012B07D17B681B686FF00102D9
:10283C001A617868FEF724FD7B681B681B6903F03E
:10284C008003802B0ED17B681B68DB6803F0800350
:10285C00802B07D17B681B686FF080021A61786847
:10286C0000F06BFA7B681B681B6903F04003402B7C
:10287C000ED17B681B68DB6803F04003402B07D14B
:10288C007B681B686FF040021A61786800F0FCF8F6
:10289C007B681B681B6903F02003202B0ED17B681F
:1028AC001B68DB6803F02003202B07D17B681B68B7
:1028BC006FF020021A61786800F036FA00BF083712
:1028CC00BD4680BD80B584B000AF78603960002310
:1028DC00FB737B6893F83C30012B01D10223B4E0ED
:1028EC007B68012283F83C207B68022283F83D2020
:1028FC007B681B689B68BB60BB6823F07703BB607D
:10290C00BB6823F47F43BB607B681B68BA689A6022
:10291C003B681B68B3F5005F3ED0B3F5005F00F277
:10292C008780B3F5805F00F08680B3F5805F7FD839
:10293C00702B1AD0702B7BD8602B50D0602B77D893
:10294C00502B3CD0502B73D8402B58D0402B6FD8E9
:10295C00302B64D0302B6BD8202B60D0202B67D839
:10296C00002B5CD0102B5AD062E07B6818683B6857
:10297C0099683B685A683B68DB6800F05EF97B68D5
:10298C001B689B68BB60BB6843F07703BB607B68CC
:10299C001B68BA689A604FE07B6818683B68996856
:1029AC003B685A683B68DB6800F047F97B681B683A
:1029BC009A687B681B6842F480429A603CE07B68B2
:1029CC0018683B6859683B68DB681A4600F0BEF82B
:1029DC007B681B685021184600F015F92CE07B68C9
:1029EC0018683B6859683B68DB681A4600F0DCF8ED
:1029FC007B681B686021184600F005F91CE07B68B9
:102A0C0018683B6859683B68DB681A4600F09EF80A
:102A1C007B681B684021184600F0F5F80CE07B68D9
:102A2C001A683B681B681946104600F0ECF803E086
:102A3C000123FB7300E000BF7B68012283F83D207B
:102A4C007B68002283F83C20FB7B18461037BD4680
:102A5C0080BD80B483B000AF786000BF0C37BD463A
:102A6C0080BC704780B483B000AF786000BF0C3777
:102A7C00BD4680BC704780B483B000AF786000BFA7
:102A8C000C37BD4680BC704780B483B000AF786013
:102A9C0000BF0C37BD4680BC7047000080B485B0C9
:102AAC0000AF786039607B681B68FB607B68254AE7
:102ABC00934207D07B68B3F1804F03D07B68224AE6
:102ACC00934208D1FB6823F07003FB603B685B68A2
:102ADC00FA681343FB607B681A4A934207D07B6801
:102AEC00B3F1804F03D07B68174A934208D1FB683F
:102AFC0023F44073FB603B68DB68FA681343FB60AC
:102B0C00FB6823F080023B685B691343FB607B68C6
:102B1C00FA681A603B689A687B68DA623B681A68E4
:102B2C007B689A627B68074A934203D13B681A69B7
:102B3C007B681A637B6801225A6100BF1437BD465B
:102B4C0080BC7047002C01400004004080B487B06A
:102B5C0000AFF860B9607A60FB681B6A7B61FB6848
:102B6C001B6A23F00102FB681A62FB689B693B61DC
:102B7C003B6923F0F0033B617B681B013A6913430B
:102B8C003B617B6923F00A037B617A69BB68134361
:102B9C007B61FB683A699A61FB687A691A6200BFCB
:102BAC001C37BD4680BC704780B487B000AFF8605E
:102BBC00B9607A60FB681B6A7B61FB681B6A23F057
:102BCC001002FB681A62FB689B693B613B6923F44A
:102BDC0070433B617B681B033A6913433B617B6920
:102BEC0023F0A0037B61BB681B017A6913437B61F3
:102BFC00FB683A699A61FB687A691A6200BF1C37F4
:102C0C00BD4680BC704780B485B000AF7860396039
:102C1C007B689B68FB60FB6823F07003FB603A6881
:102C2C00FB68134343F00703FB607B68FA689A6008
:102C3C0000BF1437BD4680BC704780B487B000AF6E
:102C4C00F860B9607A603B60FB689B687B617B696C
:102C5C0023F47F437B613B681A027B681A43BB6891
:102C6C0013437A6913437B61FB687A699A6000BFEE
:102C7C001C37BD4680BC704780B485B000AF78600F
:102C8C0039607B6893F83C30012B01D1022341E081
:102C9C007B68012283F83C207B68022283F83D206C
:102CAC007B681B685B68FB607B681B689B68BB6010
:102CBC00FB6823F07003FB603B681B68FA681343E6
:102CCC00FB607B681B68FA685A607B681B68144A57
:102CDC00934209D07B681B68B3F1804F04D07B68AA
:102CEC001B68104A93420CD1BB6823F08003BB6075
:102CFC003B685B68BA681343BB607B681B68BA6847
:102D0C009A607B68012283F83D207B68002283F85F
:102D1C003C20002318461437BD4680BC704700BFCA
:102D2C00002C01400004004080B483B000AF7860F8
:102D3C0000BF0C37BD4680BC704780B483B000AF79
:102D4C00786000BF0C37BD4680BC704770B500265C
:102D5C000C4D0D4C641BA410A64209D100F022F8B6
:102D6C0000260A4D0A4C641BA410A64205D170BD66
:102D7C0055F8043B98470136EEE755F8043B984765
:102D8C000136F2E7EC2D0008EC2D0008EC2D0008C4
:102D9C00F02D000803460244934200D1704703F81B
:102DAC00011BF9E7F8B500BFF8BC08BC9E4670479C
:0C2DBC00F8B500BFF8BC08BC9E4670478C
:102DC80000000000000000000102030406070809D3
:102DD80002030405060708090A0B0C0D0E0F101054
:042DE80001020000E4
:042DEC0031010008A9
:042DF0000D010008C9
:102DF40001000000010000000100000001000000CB
:102E040001000000010000000100000001000000BA
:102E140001000000010000000100000001000000AA
:102E2400C8000000C8000000C80000000100000045
:102E34000200000003000000040000000500000080
:102E440002000000030000000024F4001000000051
:042E54000100000079
:0400000508001721B7
:00000001FF
