:020000040800F2
:10000000002800200D170008E1140008E71400087C
:10001000ED140008F3140008F914000800000000B3
:10002000000000000000000000000000FF140008B5
:100030000B15000800000000171500082315000824
:1000400055170008551700085517000855170008E0
:1000500055170008551700085517000855170008D0
:1000600055170008551700085517000855170008C0
:1000700055170008551700085517000855170008B0
:1000800055170008551700085517000855170008A0
:100090005517000855170008551700085517000890
:1000A0005517000855170008551700085517000880
:1000B000311500085517000800000000551700080A
:1000C0005517000800000000000000005517000848
:1000D0000000000055170008551700080000000038
:1000E00055170008551700085517000800000000B4
:1000F0000000000000000000000000000000000000
:0C01000000000000000000005FF808F1A3
:10010C0010B5054C237833B9044B13B10448AFF345
:10011C0000800123237010BD64000020000000004B
:10012C009C2D000808B5034B1BB103490348AFF3E2
:10013C00008008BD00000000680000209C2D000815
:10014C0080B483B000AF7860044A7B68012142F828
:10015C00231000BF0C37BD4680BC704780000020C8
:10016C0080B483B000AF7860094A7B6852F82330C2
:10017C00012B06D1064A7B68002142F8231001238B
:10018C0000E0002318460C37BD4680BC704700BF0A
:10019C008000002080B582B000AF78604C4A7B684C
:1001AC0052F823204B497B6841F823204A4A7B684C
:1001BC0052F8232046497B6841F823207B68002BAA
:1001CC000BD14FF48041454801F0AAFD0346194676
:1001DC00414A7B6842F8231019E07B68012B0BD154
:1001EC004FF400413D4801F09BFD034619463A4A45
:1001FC007B6842F823100AE04FF40051384801F0B4
:10020C008FFD03461946344A7B6842F82310314A65
:10021C007B6852F823202E497B6851F823309A4290
:10022C0052D12B4A7B6852F823202B497B6851F81A
:10023C0023309A4248D12B4A7B6852F82320264916
:10024C007B6851F823309A421DD0234A7B6852F8C0
:10025C00232024497B6841F823201F4A7B6852F8ED
:10026C002330002B08D17868FFF76AFF1E4A7B68A1
:10027C00C82142F8231027E01C4B00221A601C4BAB
:10028C0000221A6020E0184A7B6852F823305A1E6C
:10029C0015497B6841F82320134A7B6852F82330B8
:1002AC00002B11DC0F4A7B68012142F823107B687C
:1002BC00012B03D10D4B01221A6005E07B68022B48
:1002CC0002D10B4B01221A6000BF0837BD4680BD1E
:1002DC000C00002000000020180000200008014045
:1002EC00001001402400002030000020900000206D
:1002FC009400002080B582B000AF78607B68092B39
:10030C0000F2BC8101A252F823F000BF41030008A7
:10031C0095030008E90300083D0400089104000857
:10032C00E5040008390500088D050008E105000802
:10033C003506000800228021D34801F008FD002278
:10034C004FF48071D04801F002FD00224FF400718F
:10035C00CD4801F0FCFC00224FF48061CA4801F04A
:10036C00F6FC00224FF40061C74801F0F0FC0022BB
:10037C004FF48051C44801F0EAFC01224FF40051C3
:10038C00C14801F0E4FC7AE101228021BE4801F071
:10039C00DEFC00224FF48071BB4801F0D8FC002237
:1003AC004FF40071B84801F0D2FC01224FF4806187
:1003BC00B54801F0CCFC01224FF40061B24801F0C9
:1003CC00C6FC01224FF48051AF4801F0C0FC012261
:1003DC004FF40051AC4801F0BAFC50E100228021EE
:1003EC00A94801F0B4FC00224FF48071A64801F03A
:1003FC00AEFC01224FF40071A34801F0A8FC0022CE
:10040C004FF48061A04801F0A2FC00224FF400617F
:10041C009D4801F09CFC01224FF480519A4801F058
:10042C0096FC00224FF40051974801F090FC26E115
:10043C0000228021944801F08AFC00224FF4807144
:10044C00914801F084FC00224FF400718E4801F0B9
:10045C007EFC00224FF480618B4801F078FC012275
:10046C004FF40061884801F072FC01224FF4805176
:10047C00854801F06CFC00224FF40051824801F0D9
:10048C0066FCFCE0012280217F4801F060FC002228
:10049C004FF480717C4801F05AFC00224FF400713B
:1004AC00794801F054FC01224FF48061764801F048
:1004BC004EFC01224FF40061734801F048FC00220D
:1004CC004FF48051704801F042FC00224FF400516F
:1004DC006D4801F03CFCD2E0002280216A4801F01A
:1004EC0036FC01224FF48071674801F030FC002289
:1004FC004FF40071644801F02AFC00224FF4806133
:10050C00614801F024FC01224FF400615E4801F0C7
:10051C001EFC00224FF480515B4801F018FC0022B5
:10052C004FF40051584801F012FCA8E00022802141
:10053C00554801F00CFC01224FF48071524801F037
:10054C0006FC00224FF400714F4801F000FC002221
:10055C004FF480614C4801F0FAFB00224FF400612B
:10056C00494801F0F4FB00224FF48051464801F059
:10057C00EEFB00224FF40051434801F0E8FB7EE013
:10058C0000228021404801F0E2FB00224FF48071F0
:10059C003D4801F0DCFB00224FF400713A4801F0B9
:1005AC00D6FB01224FF48061374801F0D0FB0122C9
:1005BC004FF40061344801F0CAFB01224FF4805122
:1005CC00314801F0C4FB01224FF400512E4801F0D8
:1005DC00BEFB54E0002280212B4801F0B8FB002226
:1005EC004FF48071284801F0B2FB00224FF40071E7
:1005FC00254801F0ACFB00224FF48061224801F049
:10060C00A6FB00224FF400611F4801F0A0FB002262
:10061C004FF480511C4801F09AFB00224FF400511A
:10062C00194801F094FB2AE000228021164801F0C1
:10063C008EFB00224FF48071134801F088FB0022DE
:10064C004FF40071104801F082FB00224FF48061DE
:10065C000D4801F07CFB01224FF400610A4801F0C7
:10066C0076FB00224FF48051074801F070FB00220A
:10067C004FF40051044801F06AFB00E000BF00BFDA
:10068C000837BD4680BD00BF0008014080B582B070
:10069C0000AF78607B68032B5ED801A252F823F080
:1006AC00BD060008E7060008110700083B07000814
:1006BC00002201212E4801F04AFB012202212C4884
:1006CC0001F045FB01220421294801F040FB0122E5
:1006DC000821274801F03BFB3FE00122012124487F
:1006EC0001F035FB00220221214801F030FB0122F0
:1006FC0004211F4801F02BFB012208211C4801F0AA
:10070C0026FB2AE001220121194801F020FB0122DD
:10071C000221174801F01BFB00220421144801F0B0
:10072C0016FB01220821124801F011FB15E00122F1
:10073C0001210F4801F00BFB012202210C4801F0B2
:10074C0006FB012204210A4801F001FB00220821CA
:10075C00074801F0FCFA00E000BF064A7B6852F83B
:10076C0023301846FFF7C6FD00BF0837BD4680BDD5
:10077C00000C01403C00002080B483B000AF7860D6
:10078C0039607B68092B03DC1E4B00221A6008E0E1
:10079C007B681D4A82FB03129210DB17D31A194A8D
:1007AC0013607968184B83FB01239A10CB17D21A6C
:1007BC0013469B0013445B00CA1A124B5A603B68E9
:1007CC00092B03DC0F4B00229A6008E03B680E4AB1
:1007DC0082FB03129210DB17D31A0A4A9360396812
:1007EC00094B83FB01239A10CB17D21A13469B009B
:1007FC0013445B00CA1A034BDA6000BF0C37BD46CA
:10080C0080BC70473C0000206766666680B500AF10
:10081C009B4B1B68013B042B00F2998101A252F8FF
:10082C0023F000BF450800088D08000835090008B2
:10083C00E5090008AD0A0008914B02221A60914BA1
:10084C009B68914A13608F4B1B68904A13608E4BC8
:10085C001B688E4A126811461846FFF78DFF8A4BAB
:10086C001B684FF47A7202FB03F3184600F016FD76
:10087C004FF47A7000F02EFDC82000F047FD6FE1B8
:10088C0000F060FE824B1B68012B0FD17C4B0322C6
:10089C001A607C4B5B687C4A13607B4B1B684FF483
:1008AC007A7202FB03F3184600F0F8FC794B1B68D4
:1008BC00012B15D1744B1B68744A126811461846EB
:1008CC00FFF75AFF704B1B68013B6F4A13606F4B6D
:1008DC001B68013B6D4A13604FF47A7000F0FAFC10
:1008EC006D4B1B68012B14D16C4B1B681846FFF722
:1008FC00CDFE6A4B1B68022B03DD684B00221A608D
:10090C0004E0664B1B680133644A1360C82000F096
:10091C00FDFC0020FFF724FC0346012B40F019815D
:10092C00574B14221A6014E100F030FE584B1B6830
:10093C00012B13D1524B04221A60524B1B68524AA2
:10094C001360504B9B68514A1360504B1B684FF41B
:10095C007A7202FB03F3184600F0A0FC4D4B1B68A7
:10096C00012B15D1484B1B68484A12681146184692
:10097C00FFF702FF4FF47A7000F0ACFC424B1B689F
:10098C00013B414A1360414B1B68013B3F4A1360DA
:10099C00414B1B68012B14D1404B1B681846FFF7C9
:1009AC0075FE3E4B1B68022B03DD3C4B00221A608C
:1009BC0004E03A4B1B680133384A1360C82000F03E
:1009CC00A5FC0020FFF7CCFB0346012B40F0C380B5
:1009DC002B4B14221A60BEE000F0FCFD2C4B1B6864
:1009EC00012B0FD1264B05221A60264B5B68274A38
:1009FC001360264B1B684FF47A7202FB03F3184604
:100A0C0000F04CFC234B1B68012B15D14FF47A7072
:100A1C0000F060FC1C4B1B681C4A126811461846FF
:100A2C00FFF7AAFE184B1B68013B174A1360174BC4
:100A3C001B68013B154A1360174B1B68012B14D123
:100A4C00164B1B681846FFF721FE144B1B68022B34
:100A5C0003DD124B00221A6004E0104B1B680133BB
:100A6C000E4A1360C82000F051FC0020FFF778FB01
:100A7C000346012B71D1024B14221A606DE000BFAA
:100A8C00C00000204C000020B4000020B00000206A
:100A9C009C000020A4000020AC0000208C00002052
:100AAC0000F0BCFD2F4B1B68012B13D12E4B0222E7
:100ABC001A602E4B9B682E4A13602C4B1B682D4AD8
:100ACC0013602B4B1B684FF47A7202FB03F318462E
:100ADC0000F0E4FB284B1B68012B15D14FF47A7006
:100AEC0000F0F8FB224B1B68224A1268114618468C
:100AFC00FFF742FE1E4B1B68013B1D4A13601D4B4A
:100B0C001B68013B1B4A13601C4B1B68012B14D147
:100B1C001B4B1B681846FFF7B9FD194B1B68022BC2
:100B2C0003DD174B00221A6004E0154B1B680133E0
:100B3C00134A1360C82000F0E9FB0020FFF710FBFC
:100B4C000346012B0BD1084B14221A6007E000BF9F
:100B5C0006E000BF04E000BF02E000BF00E000BF01
:100B6C0000BF80BD9C000020C00000204C00002075
:100B7C00B4000020B0000020A4000020AC00002035
:100B8C008C00002080B500AFAE4B1B68143B052BCE
:100B9C0000F20E8201A252F823F000BFC10B000834
:100BAC00F90B0008070D00083F0D0008750E000832
:100BBC00AD0E0008002000F007FCA24B15221A60B5
:100BCC004FF4FA7000F086FB9F4B01221A60C8208C
:100BDC0000F09CFB9D4B00221A6000F043FD9A4BE9
:100BEC001B6819460220FFF7C7FDE8E1984B1B680C
:100BFC00012B02D1934B01221A60964B1B68012BDF
:100C0C0005D100F053FD4FF4FA7000F063FB924BEA
:100C1C001B68012B14D18D4B1B681846FFF736FD52
:100C2C008A4B1B68022B03DD884B00221A6004E000
:100C3C00864B1B680133854A1360C82000F066FBA5
:100C4C000020FFF78DFA0346012B02D17D4B1622B3
:100C5C001A600120FFF784FA0346012B1BD17F4B4E
:100C6C001B68012B05D1784B1B680533764A136042
:100C7C0004E0754B1B680133734A1360724B1B689D
:100C8C00632B02DD704B01221A606F4B1B681946F7
:100C9C000220FFF771FD0220FFF762FA0346012BD9
:100CAC0040F08881684B1B681946002000F09CF9C5
:100CBC006B4B1B686A4A52681146184600F0A6F93D
:100CCC000346012B0BD10121012000F08DF95E4B65
:100CDC001B68013B1946022000F086F908E05A4BCC
:100CEC001A685F4B5B68D31A1946022000F07CF936
:100CFC0041F2883000F0D2FA5CE1002000F064FB95
:100D0C00504B17221A604FF4FA7000F0E3FA4E4B76
:100D1C0001221A60C82000F0F9FA4C4B00221A602C
:100D2C0000F0A0FC484B1B6819460320FFF724FD7C
:100D3C0045E1474B1B68012B02D1424B01221A6043
:100D4C00444B1B68012B05D100F0BEFC4FF4FA702C
:100D5C0000F0C0FA404B1B68012B14D13B4B1B68B5
:100D6C001846FFF793FC394B1B68022B03DD374BFE
:100D7C0000221A6004E0354B1B680133334A1360C0
:100D8C00C82000F0C3FA0020FFF7EAF90346012B54
:100D9C0002D12C4B18221A600120FFF7E1F903460F
:100DAC00012B1BD12D4B1B68012B05D1264B1B682E
:100DBC000533254A136004E0234B1B680133224A98
:100DCC001360214B1B68632B02DD1F4B01221A6041
:100DDC001D4B1B6819460320FFF7CEFC0220FFF7C2
:100DEC00BFF90346012B40F0E780174B1B681946EF
:100DFC00012000F0F9F81A4B1B68194A5268114689
:100E0C00184600F003F90346012B09D1144B9A68DC
:100E1C000D4B1B6813441946002000F0E5F80CE05C
:100E2C000821104800F0ABFF0D4B1A68064B1B68ED
:100E3C00D31A1946022000F0D7F841F2883000F09E
:100E4C002DFAB9E0C0000020B8000020BC00002042
:100E5C009C000020A4000020AC000020900000208A
:100E6C004C00002000080140002000F0ADFA554B6A
:100E7C0019221A604FF4FA7000F02CFA524B01222E
:100E8C001A60C82000F042FA504B00221A6000F0A1
:100E9C00E9FB4D4B1B6819460420FFF76DFC8EE0F7
:100EAC004B4B1B68012B02D1464B01221A60494B5C
:100EBC001B68012B05D100F015FC4FF4FA7000F003
:100ECC0009FA454B1B68012B14D1404B1B68184683
:100EDC00FFF7DCFB3D4B1B68022B03DD3B4B002279
:100EEC001A6004E0394B1B680133384A1360C82080
:100EFC0000F00CFA0020FFF733F90346012B02D166
:100F0C00304B01221A600120FFF72AF90346012B0E
:100F1C001BD1324B1B68012B05D12B4B1B680533A6
:100F2C00294A136004E0284B1B680133264A1360DE
:100F3C00254B1B68632B02DD234B01221A60224BCD
:100F4C001B6819460420FFF717FC0220FFF708F96D
:100F5C000346012B32D1224B1B68002B23D11A4B99
:100F6C001B681946022000F03FF81E4B1B681D4AF7
:100F7C0092681146184600F049F80346012B09D136
:100F8C00184B5A68104B1B6813441946002000F08C
:100F9C002BF808E0134B1A680B4B1B68D31A194635
:100FAC00012000F021F841F2883000F077F905E0DB
:100FBC0000BF04E000BF02E000BF00E000BF00BFC4
:100FCC0080BD00BFC0000020B8000020BC00002085
:100FDC009C000020A4000020AC0000209000002009
:100FEC00940000204C00002080B483B000AF7860E7
:100FFC00396005497B683A6841F8232000BF0C37FB
:10100C00BD4680BC704700BF4C00002080B483B04C
:10101C0000AF786039607A683B689A42D4BF01238C
:10102C000023DBB218460C37BD4680BC704700006D
:10103C0080B500AF00F08AFB00F014F800F09AF8CD
:10104C0000F04CF8054801F0DFFA054B01221A605C
:10105C00FFF798FDFFF7DAFBFAE700BFC4000020AA
:10106C00C000002080B590B000AF07F11803282213
:10107C000021184601F084FE3B1D00221A605A60C4
:10108C009A60DA601A610223BB610123BB621023F0
:10109C00FB6200237B6307F11803184600F088FEFF
:1010AC000346002B01D000F0F4F80F237B600023E3
:1010BC00BB600023FB6000233B6100237B613B1D75
:1010CC000021184601F0F4F80346002B01D000F083
:1010DC00E0F800BF4037BD4680BD000080B586B04B
:1010EC0000AF07F1080300221A605A609A60DA60B8
:1010FC003B4600221A605A601D4B4FF080421A602A
:10110C001B4B41F63F725A60194B00229A60184BE8
:10111C000922DA60164B00221A61154B00229A61E3
:10112C00134801F021FA0346002B01D000F0B1F86E
:10113C004FF48053BB6007F1080319460C4801F0CB
:10114C00B7FB0346002B01D000F0A3F800233B6053
:10115C0000237B603B461946054801F083FD03469E
:10116C00002B01D000F095F800BF1837BD4680BDAC
:10117C00C400002080B588B000AF07F11003002236
:10118C001A605A609A60DA60344B9B69334A43F0B8
:10119C0010039361314B9B6903F01003FB60FB68F8
:1011AC002E4B9B692D4A43F0040393612B4B9B6997
:1011BC0003F00403BB60BB68284B9B69274A43F0D0
:1011CC0008039361254B9B6903F008037B607B68E4
:1011DC00002243F6FE71224800F0B9FD00220F21D7
:1011EC00204800F0B4FD4FF400533B6100237B61B9
:1011FC000123BB6107F1100319461B4800F016FCD4
:10120C0043F6FE733B6101237B610023BB61022328
:10121C00FB6107F110031946114800F007FC0F237E
:10122C003B6101237B610023BB610223FB6107F15E
:10123C00100319460B4800F0F9FB4FF440433B6197
:10124C0000237B610123BB6107F11003194604489D
:10125C0000F0ECFB00BF2037BD4680BD0010024003
:10126C0000080140000C01400010014080B582B024
:10127C0000AF786000F066F80020FEF78BFF0120CD
:10128C00FEF788FF0220FEF785FF00BF0837BD463A
:10129C0080BD80B400AF72B600BFFEE780B483B0EF
:1012AC0000AF78607B68084A82FB03129210DB1750
:1012BC00D31A064A1360064B00221A6000BF0C3783
:1012CC00BD4680BC704700BF67666666980000200C
:1012DC009C00002080B483B000AF78607B68084A23
:1012EC0082FB03129210DB17D31A064A1360064BCB
:1012FC0000221A6000BF0C37BD4680BC704700BF8F
:10130C0067666666A0000020A400002080B483B04D
:10131C0000AF78607B68084A82FB03129210DB17DF
:10132C00D31A064A1360064B00221A6000BF0C3712
:10133C00BD4680BC704700BF67666666A80000208B
:10134C00AC00002080B400AF194B1B68002B0BDDE8
:10135C00174B1B68013B164A1360154B1B68002B7F
:10136C0002DC144B01221A60134B1B68002B0BDDA3
:10137C00114B1B68013B104A13600F4B1B68002B71
:10138C0002DC0E4B01221A600D4B1B68002B0BDD8F
:10139C000B4B1B68013B0A4A1360094B1B68002B63
:1013AC0002DC084B01221A6000BFBD4680BC7047AE
:1013BC00980000209C000020A0000020A400002029
:1013CC00A8000020AC00002080B483B000AF78608F
:1013DC007B68002B06D10E4B00221A600D4B0022AD
:1013EC001A600FE07B68012B06D10B4B00221A60B0
:1013FC000A4B00221A6005E0094B00221A60094BC7
:10140C0000221A6000BF0C37BD4680BC704700BF7D
:10141C009C00002098000020A4000020A0000020C8
:10142C00AC000020A800002080B485B000AF154BA4
:10143C009B69144A43F001039361124B9B6903F0BF
:10144C000103BB60BB680F4BDB690E4A43F0805352
:10145C00D3610C4BDB6903F080537B607B680A4BD8
:10146C005B68FB60FB6823F0E063FB60FB6843F0A8
:10147C008063FB60044AFB68536000BF1437BD46B1
:10148C0080BC7047001002400000014080B584B061
:10149C0000AF78607B681B68B3F1804F13D10C4BA5
:1014AC00DB690B4A43F00103D361094BDB6903F0A1
:1014BC000103FB60FB68002200211C2000F07FFA76
:1014CC001C2000F098FA00BF1037BD4680BD00BF4D
:1014DC000010024080B400AFFEE780B400AFFEE71E
:1014EC0080B400AFFEE780B400AFFEE780B400AF7D
:1014FC00FEE780B400AF00BFBD4680BC704780B42F
:10150C0000AF00BFBD4680BC704780B400AF00BFC9
:10151C00BD4680BC704780B500AF00F05DF900BFE0
:10152C0080BD000080B500AF024801F0B9F800BFE3
:10153C0080BD00BFC400002080B400AF00BFBD461A
:10154C0080BC704780B500AF002208210E4800F027
:10155C00FEFB012204210C4800F0F9FB01220221C0
:10156C00094800F0F4FB01224021074800F0EFFB92
:10157C0001222021044800F0EAFB0022102102483D
:10158C0000F0E5FB00BF80BD0008014080B500AF56
:10159C00012208210E4800F0DAFB002204210C483D
:1015AC0000F0D5FB01220221094800F0D0FB0122FA
:1015BC004021074800F0CBFB01222021044800F019
:1015CC00C6FB00221021024800F0C1FB00BF80BD09
:1015DC000008014080B500AF012208210E4800F040
:1015EC00B6FB012204210C4800F0B1FB00220221C1
:1015FC00094800F0ACFB00224021074800F0A7FB93
:10160C0001222021044800F0A2FB012210210248F3
:10161C0000F09DFB00BF80BD0008014080B500AF0D
:10162C00012208210E4800F092FB012204210C48F3
:10163C0000F08DFB00220221094800F088FB0122FA
:10164C004021074800F083FB00222021044800F0D1
:10165C007EFB01221021024800F079FB00BF80BD07
:10166C000008014080B500AF012208210E4800F0AF
:10167C006EFB012204210C4800F069FB01220221BF
:10168C00094800F064FB01224021074800F05FFB91
:10169C0001222021044800F05AFB012210210248AB
:1016AC0000F055FB00BF80BD0008014080B500AFC5
:1016BC000221044800F063FB1021024800F05FFB9C
:1016CC0000BF80BD0008014080B500AF0421044874
:1016DC0000F055FB2021024800F051FB00BF80BDFB
:1016EC000008014080B500AF0821044800F047FB1A
:1016FC004021024800F043FB00BF80BD00080140C0
:10170C00FFF71AFF0B480C490C4A002302E0D4588F
:10171C00C4500433C4188C42F9D3094A094C002331
:10172C0001E013600432A242FBD301F005FBFFF78A
:10173C007FFC70470000002064000020E02D0008B2
:10174C006400002010010020FEE7000080B500AF0F
:10175C00084B1B68074A43F010031360032000F08A
:10176C0023F90F2000F008F8FFF75EFE002318465F
:10177C0080BD00BF0020024080B582B000AF786011
:10178C00124B1A68124B1B7819464FF47A73B3FB41
:10179C00F1F3B2FBF3F3184600F03BF90346002BD0
:1017AC0001D001230EE07B680F2B0AD80022796848
:1017BC004FF0FF3000F003F9064A7B6813600023FA
:1017CC0000E0012318460837BD4680BD58000020B4
:1017DC00600000205C00002080B400AF054B1B783B
:1017EC001A46054B1B681344034A136000BFBD46E1
:1017FC0080BC7047600000200C01002080B400AF5A
:10180C00024B1B681846BD4680BC70470C0100207B
:10181C0080B485B000AF78607B6803F00703FB6091
:10182C000C4BDB68BB60BA684FF6FF031340BB6020
:10183C00FB681A02BB68134343F0BF6343F40033E5
:10184C00BB60044ABB68D36000BF1437BD4680BC84
:10185C00704700BF00ED00E080B400AF044BDB68C4
:10186C001B0A03F007031846BD4680BC704700BF37
:10187C0000ED00E080B483B000AF0346FB7197F934
:10188C000730002B0BDBFB7903F01F02064997F99D
:10189C0007305B09012000FA02F241F8232000BF57
:1018AC000C37BD4680BC704700E100E080B483B0CB
:1018BC0000AF03463960FB7197F90730002B0ADB48
:1018CC003B68DAB20C4997F907301201D2B20B44DB
:1018DC0083F800230AE03B68DAB20849FB7903F08D
:1018EC000F03043B1201D2B20B441A7600BF0C3723
:1018FC00BD4680BC704700BF00E100E000ED00E099
:10190C0080B489B000AFF860B9607A60FB6803F00E
:10191C000703FB61FB69C3F10703042B28BF0423F6
:10192C00BB61FB690433062B02D9FB69033B00E066
:10193C0000237B614FF0FF32BB6902FA03F3DA43F9
:10194C00BB681A407B699A404FF0FF317B6901FA02
:10195C0003F3D9437B680B40134318462437BD4629
:10196C0080BC704780B582B000AF78607B68013B6B
:10197C00B3F1807F01D301230FE00A4A7B68013B5E
:10198C0053600F214FF0FF30FFF790FF054B002203
:10199C009A60044B07221A60002318460837BD468C
:1019AC0080BD00BF10E000E080B582B000AF786071
:1019BC007868FFF72DFF00BF0837BD4680BD80B5A6
:1019CC0086B000AF0346B9607A60FB7300237B617D
:1019DC00FFF742FF78617A68B9687869FFF790FF82
:1019EC00024697F90F3011461846FFF75FFF00BF0C
:1019FC001837BD4680BD80B582B000AF0346FB7181
:101A0C0097F907301846FFF735FF00BF0837BD467A
:101A1C0080BD80B582B000AF78607868FFF7A2FF18
:101A2C00034618460837BD4680BD000080B48BB015
:101A3C0000AF7860396000237B6200233B6248E191
:101A4C0001227B6A02FA03F3FB613B681B68FA69AB
:101A5C001340BB61BA69FB699A4240F037813B681D
:101A6C005B68A34A93425ED0A14A934275D8A14ABF
:101A7C00934258D09F4A93426FD89F4A934252D078
:101A8C009D4A934269D89D4A93424CD09B4A9342BB
:101A9C0063D89B4A934246D0994A93425DD8122B05
:101AAC002AD8122B59D801A252F823F0331B000864
:101ABC000D1B00081F1B0008611B0008671B00089A
:101ACC00671B0008671B0008671B0008671B0008E2
:101ADC00671B0008671B0008671B0008671B0008D2
:101AEC00671B0008671B0008671B0008671B0008C2
:101AFC00151B0008291B0008824A934213D02CE0C6
:101B0C003B68DB683B6229E03B68DB6804333B6283
:101B1C0024E03B68DB6808333B621FE03B68DB6812
:101B2C000C333B621AE03B689B68002B02D1042308
:101B3C003B6213E03B689B68012B05D108233B6299
:101B4C007B68FA691A6109E008233B627B68FA69D1
:101B5C005A6103E000233B6200E000BFBB69FF2B2E
:101B6C0001D87B6801E07B6804337B61BB69FF2B88
:101B7C0002D87B6A9B0002E07B6A083B9B003B61BE
:101B8C007B691A680F213B6901FA03F3DB431A40A6
:101B9C00396A3B6901FA03F31A437B691A603B68A3
:101BAC005B6803F08053002B00F09080564B9B69D0
:101BBC00554A43F001039361534B9B6903F00103B6
:101BCC00BB60BB68514A7B6A9B08023352F82330D6
:101BDC00FB607B6A03F003039B000F2202FA03F302
:101BEC00DB43FA681340FB607B68494A93420DD093
:101BFC007B68484A934207D07B68474A934201D19D
:101C0C00022304E0032302E0012300E000237A6AAC
:101C1C0002F0030292009340FA681343FB603B49C5
:101C2C007B6A9B080233FA6841F823203B685B68A7
:101C3C0003F48013002B06D0384B9A683749BB69E4
:101C4C0013438B6006E0354B9A68BB69DB43334921
:101C5C0013408B603B685B6803F40013002B06D0C9
:101C6C002E4BDA682D49BB691343CB6006E02B4B36
:101C7C00DA68BB69DB4329491340CB603B685B687E
:101C8C0003F40033002B06D0244B5A682349BB695C
:101C9C0013434B6006E0214B5A68BB69DB431F4979
:101CAC0013404B603B685B6803F48033002B06D019
:101CBC001A4B1A681949BB6913430B6006E0174BA2
:101CCC001A68BB69DB43154913400B607B6A01330F
:101CDC007B623B681A687B6A22FA03F3002B7FF461
:101CEC00AFAE00BF00BF2C37BD4680BC704700BFF5
:101CFC0000003210000031100000221000002110F2
:101D0C0000001210000011100010024000000140F1
:101D1C0000080140000C014000100140000401408B
:101D2C0080B485B000AF78600B467B807B689A6886
:101D3C007B881340002B02D00123FB7301E00023AE
:101D4C00FB73FB7B18461437BD4680BC704780B4D0
:101D5C0083B000AF78600B467B8013467B707B783A
:101D6C00002B03D07A887B681A6103E07B881A0405
:101D7C007B681A6100BF0C37BD4680BC704780B4CD
:101D8C0085B000AF78600B467B807B68DB68FB60BE
:101D9C007A88FB6813401A04FB68D9437B880B4094
:101DAC001A437B681A6100BF1437BD4680BC70476C
:101DBC0080B586B000AF78607B68002B01D1012321
:101DCC006CE27B681B6803F00103002B00F087803A
:101DDC00924B5B6803F00C03042B0CD08F4B5B68AD
:101DEC0003F00C03082B12D18C4B5B6803F480338B
:101DFC00B3F5803F0BD1894B1B6803F40033002BE8
:101E0C006CD07B685B68002B68D1012346E27B6851
:101E1C005B68B3F5803F06D1804B1B687F4A43F467
:101E2C00803313602EE07B685B68002B0CD17B4BFE
:101E3C001B687A4A23F480331360784B1B68774A0B
:101E4C0023F4802313601DE07B685B68B3F5A02F3F
:101E5C000CD1724B1B68714A43F4802313606F4B97
:101E6C001B686E4A43F4803313600BE06B4B1B68AA
:101E7C006A4A23F480331360684B1B68674A23F467
:101E8C00802313607B685B68002B13D0FFF7B6FCD4
:101E9C00386108E0FFF7B2FC02463B69D31A642BA9
:101EAC0001D90323FAE15D4B1B6803F40033002BCB
:101EBC00F0D014E0FFF7A2FC386108E0FFF79EFCBD
:101ECC0002463B69D31A642B01D90323E6E1534B39
:101EDC001B6803F40033002BF0D100E000BF7B68DB
:101EEC001B6803F00203002B63D04C4B5B6803F0C0
:101EFC000C03002B0BD0494B5B6803F00C03082B35
:101F0C001CD1464B5B6803F48033002B16D1434B3A
:101F1C001B6803F00203002B05D07B681B69012BA7
:101F2C0001D00123BAE13D4B1B6823F0F8027B681A
:101F3C005B69DB00394913430B603AE07B681B6932
:101F4C00002B20D0364B01221A60FFF757FC38616A
:101F5C0008E0FFF753FC02463B69D31A022B01D968
:101F6C0003239BE12D4B1B6803F00203002BF0D0E5
:101F7C002A4B1B6823F0F8027B685B69DB0027495E
:101F8C0013430B6015E0264B00221A60FFF736FC5A
:101F9C00386108E0FFF732FC02463B69D31A022B8A
:101FAC0001D903237AE11D4B1B6803F00203002BBC
:101FBC00F0D17B681B6803F00803002B3AD07B68D8
:101FCC009B69002B19D0174B01221A60FFF716FCE6
:101FDC00386108E0FFF712FC02463B69D31A022B6A
:101FEC0001D903235AE10D4B5B6A03F00203002B6A
:101FFC00F0D0012000F09AFA1CE00A4B00221A6083
:10200C00FFF7FCFB38610FE0FFF7F8FB02463B697A
:10201C00D31A022B08D9032340E100BF0010024061
:10202C0000004242800442429E4B5B6A03F0020372
:10203C00002BE9D17B681B6803F00403002B00F034
:10204C00A6800023FB75974BDB6903F08053002BB4
:10205C000DD1944BDB69934A43F08053D361914B80
:10206C00DB6903F08053BB60BB680123FB758E4BAF
:10207C001B6803F48073002B18D18B4B1B688A4AA6
:10208C0043F480731360FFF7B9FB386108E0FFF786
:10209C00B5FB02463B69D31A642B01D90323FDE03F
:1020AC00814B1B6803F48073002BF0D07B68DB68DA
:1020BC00012B06D17B4B1B6A7A4A43F00103136256
:1020CC002DE07B68DB68002B0CD1764B1B6A754AC4
:1020DC0023F001031362734B1B6A724A23F004034F
:1020EC0013621CE07B68DB68052B0CD16D4B1B6A03
:1020FC006C4A43F0040313626A4B1B6A694A43F04F
:10210C00010313620BE0674B1B6A664A23F0010361
:10211C001362644B1B6A634A23F0040313627B68EB
:10212C00DB68002B15D0FFF769FB38610AE0FFF77D
:10213C0065FB02463B69D31A41F28832934201D9BE
:10214C000323ABE0574B1B6A03F00203002BEED0CA
:10215C0014E0FFF753FB38610AE0FFF74FFB024630
:10216C003B69D31A41F28832934201D9032395E09B
:10217C004C4B1B6A03F00203002BEED1FB7D012BB1
:10218C0005D1484BDB69474A23F08053D3617B6808
:10219C00DB69002B00F08180424B5B6803F00C0381
:1021AC00082B61D07B68DB69022B46D13F4B0022A8
:1021BC001A60FFF723FB386108E0FFF71FFB0246AC
:1021CC003B69D31A022B01D9032367E0354B1B68FB
:1021DC0003F00073002BF0D17B681B6AB3F5803FD2
:1021EC0008D1304B5B6823F400327B689B682D4927
:1021FC0013434B602B4B5B6823F474127B68196A96
:10220C007B685B6A0B43274913434B60274B0122C6
:10221C001A60FFF7F3FA386108E0FFF7EFFA0246AD
:10222C003B69D31A022B01D9032337E01D4B1B68E2
:10223C0003F00073002BF0D02FE01C4B00221A602F
:10224C00FFF7DCFA386108E0FFF7D8FA02463B6981
:10225C00D31A022B01D9032320E0124B1B6803F085
:10226C000073002BF0D118E07B68DB69012B01D1E6
:10227C00012313E00B4B5B68FB60FB6803F48032BB
:10228C007B681B6A9A4206D1FB6803F470127B6868
:10229C005B6A9A4201D0012300E0002318461837EC
:1022AC00BD4680BD001002400070004060004242FC
:1022BC0080B584B000AF786039607B68002B01D1A9
:1022CC000123D0E06A4B1B6803F007033A689A427B
:1022DC0010D9674B1B6823F0070265493B68134311
:1022EC000B60634B1B6803F007033A689A4201D0FA
:1022FC000123B8E07B681B6803F00203002B20D09D
:10230C007B681B6803F00403002B05D0594B5B68FA
:10231C00584A43F4E06353607B681B6803F008037E
:10232C00002B05D0534B5B68524A43F46053536007
:10233C00504B5B6823F0F0027B689B684D4913435C
:10234C004B607B681B6803F00103002B40D07B685B
:10235C005B68012B07D1474B1B6803F40033002B40
:10236C0015D101237FE07B685B68022B07D1414BC1
:10237C001B6803F00073002B09D1012373E03D4B64
:10238C001B6803F00203002B01D101236BE0394BD6
:10239C005B6823F003027B685B68364913434B6030
:1023AC00FFF72CFAF8600AE0FFF728FA0246FB6800
:1023BC00D31A41F28832934201D9032353E02D4BB7
:1023CC005B6803F00C027B685B689B009A42EBD164
:1023DC00274B1B6803F007033A689A4210D2244B30
:1023EC001B6823F0070222493B6813430B60204B08
:1023FC001B6803F007033A689A4201D0012332E0CC
:10240C007B681B6803F00403002B08D0194B5B6836
:10241C0023F4E0627B68DB68164913434B607B68EE
:10242C001B6803F00803002B09D0124B5B6823F4E4
:10243C0060527B681B69DB000E4913434B6000F054
:10244C0021F802460B4B5B681B0903F00F030A498A
:10245C00CB5C22FA03F3094A1360094B1B6818463C
:10246C00FFF78AF9002318461037BD4680BD00BF20
:10247C000020024000100240B42D0008580000203B
:10248C005C00002080B487B000AF0023FB60002309
:10249C00BB6000237B6100237B6000233B611E4BF0
:1024AC005B68FB60FB6803F00C03042B02D0082B69
:1024BC0003D027E0194B3B6127E0FB689B0C03F032
:1024CC000F03174AD35C7B60FB6803F48033002B4B
:1024DC0010D0114B5B685B0C03F00103114AD35C09
:1024EC00BB607B680D4A02FB03F2BB68B2FBF3F3E3
:1024FC007B6104E07B680C4A02FB03F37B617B6924
:10250C003B6102E0054B3B6100BF3B6918461C3741
:10251C00BD4680BC704700BF0010024000127A001C
:10252C00C42D0008D42D000800093D0080B485B0EE
:10253C0000AF78600A4B1B680A4AA2FB03235B0AB4
:10254C007A6802FB03F3FB6000BFFB685A1EFA605B
:10255C00002BF9D100BF00BF1437BD4680BC7047BB
:10256C0058000020D34D621080B582B000AF786067
:10257C007B68002B01D1012341E07B6893F83D304F
:10258C00DBB2002B06D17B68002283F83C207868F4
:10259C00FEF77CFF7B68022283F83D207B681A687B
:1025AC007B6804331946104600F06EFA7B680122F2
:1025BC0083F846207B68012283F83E207B68012249
:1025CC0083F83F207B68012283F840207B6801223E
:1025DC0083F841207B68012283F842207B6801222A
:1025EC0083F843207B68012283F844207B68012216
:1025FC0083F845207B68012283F83D200023184690
:10260C000837BD4680BD000080B485B000AF78604F
:10261C007B6893F83D30DBB2012B01D0012335E010
:10262C007B68022283F83D207B681B68DA687B6834
:10263C001B6842F00102DA607B681B68164A934201
:10264C0009D07B681B68B3F1804F04D07B681B6892
:10265C00124A934211D17B681B689B6803F00703F5
:10266C00FB60FB68062B10D07B681B681A687B68C4
:10267C001B6842F001021A6007E07B681B681A684D
:10268C007B681B6842F001021A600023184614375D
:10269C00BD4680BC704700BF002C014000040040C8
:1026AC0080B582B000AF78607B681B681B6903F053
:1026BC000203022B22D17B681B68DB6803F0020348
:1026CC00022B1BD17B681B686FF002021A617B68BE
:1026DC0001221A777B681B689B6903F00303002BAC
:1026EC0003D0786800F0B4F905E0786800F0A7F939
:1026FC00786800F0B6F97B6800221A777B681B6853
:10270C001B6903F00403042B22D17B681B68DB6874
:10271C0003F00403042B1BD17B681B686FF00402CD
:10272C001A617B6802221A777B681B689B6903F429
:10273C004073002B03D0786800F08AF905E07868C4
:10274C0000F07DF9786800F08CF97B6800221A772C
:10275C007B681B681B6903F00803082B22D17B687C
:10276C001B68DB6803F00803082B1BD17B681B6814
:10277C006FF008021A617B6804221A777B681B6869
:10278C00DB6903F00303002B03D0786800F060F9D9
:10279C0005E0786800F053F9786800F062F97B681E
:1027AC0000221A777B681B681B6903F01003102B3F
:1027BC0022D17B681B68DB6803F01003102B1BD144
:1027CC007B681B686FF010021A617B6808221A770D
:1027DC007B681B68DB6903F44073002B03D07868BB
:1027EC0000F036F905E0786800F029F9786800F017
:1027FC0038F97B6800221A777B681B681B6903F029
:10280C000103012B0ED17B681B68DB6803F001030D
:10281C00012B07D17B681B686FF001021A61786885
:10282C00FEF724FD7B681B681B6903F08003802B7B
:10283C000ED17B681B68DB6803F08003802B07D10B
:10284C007B681B686FF080021A61786800F06BFA85
:10285C007B681B681B6903F04003402B0ED17B681F
:10286C001B68DB6803F04003402B07D17B681B68B7
:10287C006FF040021A61786800F0FCF87B681B6806
:10288C001B6903F02003202B0ED17B681B68DB68CF
:10289C0003F02003202B07D17B681B686FF020020C
:1028AC001A61786800F036FA00BF0837BD4680BD63
:1028BC0080B584B000AF786039600023FB737B680F
:1028CC0093F83C30012B01D10223B4E07B68012248
:1028DC0083F83C207B68022283F83D207B681B68D0
:1028EC009B68BB60BB6823F07703BB60BB6823F4B9
:1028FC007F43BB607B681B68BA689A603B681B6847
:10290C00B3F5005F3ED0B3F5005F00F28780B3F5FE
:10291C00805F00F08680B3F5805F7FD8702B1AD073
:10292C00702B7BD8602B50D0602B77D8502B3CD0A1
:10293C00502B73D8402B58D0402B6FD8302B64D0F1
:10294C00302B6BD8202B60D0202B67D8002B5CD081
:10295C00102B5AD062E07B6818683B6899683B681A
:10296C005A683B68DB6800F05EF97B681B689B6803
:10297C00BB60BB6843F07703BB607B681B68BA68BD
:10298C009A604FE07B6818683B6899683B685A68A6
:10299C003B68DB6800F047F97B681B689A687B68CA
:1029AC001B6842F480429A603CE07B6818683B6884
:1029BC0059683B68DB681A4600F0BEF87B681B68F8
:1029CC005021184600F015F92CE07B6818683B681C
:1029DC0059683B68DB681A4600F0DCF87B681B68BA
:1029EC006021184600F005F91CE07B6818683B680C
:1029FC0059683B68DB681A4600F09EF87B681B68D8
:102A0C004021184600F0F5F80CE07B681A683B682A
:102A1C001B681946104600F0ECF803E00123FB7329
:102A2C0000E000BF7B68012283F83D207B68002218
:102A3C0083F83C20FB7B18461037BD4680BD80B424
:102A4C0083B000AF786000BF0C37BD4680BC7047C8
:102A5C0080B483B000AF786000BF0C37BD4680BC3B
:102A6C00704780B483B000AF786000BF0C37BD46B0
:102A7C0080BC704780B483B000AF786000BF0C3767
:102A8C00BD4680BC7047000080B485B000AF786054
:102A9C0039607B681B68FB607B68254A934207D0D2
:102AAC007B68B3F1804F03D07B68224A934208D1F4
:102ABC00FB6823F07003FB603B685B68FA681343A8
:102ACC00FB607B681A4A934207D07B68B3F1804F56
:102ADC0003D07B68174A934208D1FB6823F44073F8
:102AEC00FB603B68DB68FA681343FB60FB6823F010
:102AFC0080023B685B691343FB607B68FA681A6071
:102B0C003B689A687B68DA623B681A687B689A62F1
:102B1C007B68074A934203D13B681A697B681A6346
:102B2C007B6801225A6100BF1437BD4680BC7047D8
:102B3C00002C01400004004080B487B000AFF86066
:102B4C00B9607A60FB681B6A7B61FB681B6A23F0C7
:102B5C000102FB681A62FB689B693B613B6923F0CD
:102B6C00F0033B617B681B013A6913433B617B6952
:102B7C0023F00A037B617A69BB6813437B61FB68B2
:102B8C003A699A61FB687A691A6200BF1C37BD46C4
:102B9C0080BC704780B487B000AFF860B9607A60D1
:102BAC00FB681B6A7B61FB681B6A23F01002FB68E5
:102BBC001A62FB689B693B613B6923F470433B6180
:102BCC007B681B033A6913433B617B6923F0A003C9
:102BDC007B61BB681B017A6913437B61FB683A69B3
:102BEC009A61FB687A691A6200BF1C37BD4680BCCB
:102BFC00704780B485B000AF786039607B689B68A3
:102C0C00FB60FB6823F07003FB603A68FB681343BE
:102C1C0043F00703FB607B68FA689A6000BF1437C7
:102C2C00BD4680BC704780B487B000AFF860B96017
:102C3C007A603B60FB689B687B617B6923F47F4314
:102C4C007B613B681A027B681A43BB6813437A6941
:102C5C0013437B61FB687A699A6000BF1C37BD46E1
:102C6C0080BC704780B485B000AF786039607B68F9
:102C7C0093F83C30012B01D1022341E07B68012207
:102C8C0083F83C207B68022283F83D207B681B681C
:102C9C005B68FB607B681B689B68BB60FB6823F010
:102CAC007003FB603B681B68FA681343FB607B682E
:102CBC001B68FA685A607B681B68144A934209D0F7
:102CCC007B681B68B3F1804F04D07B681B68104A8B
:102CDC0093420CD1BB6823F08003BB603B685B68FC
:102CEC00BA681343BB607B681B68BA689A607B68E0
:102CFC00012283F83D207B68002283F83C200023CE
:102D0C0018461437BD4680BC704700BF002C0140EC
:102D1C000004004080B483B000AF786000BF0C3773
:102D2C00BD4680BC704780B483B000AF786000BFF4
:102D3C000C37BD4680BC704770B500260C4D0D4C51
:102D4C00641BA410A64209D100F022F800260A4DFB
:102D5C000A4C641BA410A64205D170BD55F8043B67
:102D6C0098470136EEE755F8043B98470136F2E7F1
:102D7C00D82D0008D82D0008D82D0008DC2D00080F
:102D8C0003460244934200D1704703F8011BF9E754
:102D9C00F8B500BFF8BC08BC9E467047F8B500BF3C
:082DAC00F8BC08BC9E4670470C
:102DB40000000000000000000102030406070809E7
:102DC40002030405060708090A0B0C0D0E0F101068
:042DD40001020000F8
:042DD80031010008BD
:042DDC000D010008DD
:102DE00001000000010000000100000001000000DF
:102DF00001000000010000000100000001000000CF
:102E000001000000010000000100000001000000BE
:102E1000C8000000C8000000C80000000100000059
:102E20000200000003000000040000000500000094
:102E300002000000030000000024F4001000000065
:042E4000010000008D
:040000050800170DCB
:00000001FF
