:020000040800F2
:1000000000280020D9160008AD140008B314000819
:10001000B9140008BF140008C5140008000000004F
:10002000000000000000000000000000CB140008E9
:10003000D714000800000000E3140008EF140008C3
:1000400021170008211700082117000821170008B0
:1000500021170008211700082117000821170008A0
:100060002117000821170008211700082117000890
:100070002117000821170008211700082117000880
:100080002117000821170008211700082117000870
:100090002117000821170008211700082117000860
:1000A0002117000821170008211700082117000850
:1000B000FD140008211700080000000021170008A7
:1000C00021170008000000000000000021170008B0
:1000D00000000000211700082117000800000000A0
:1000E0002117000821170008211700080000000050
:1000F0000000000000000000000000000000000000
:0C01000000000000000000005FF808F1A3
:10010C0010B5054C237833B9044B13B10448AFF345
:10011C0000800123237010BD64000020000000004B
:10012C00682D000808B5034B1BB103490348AFF316
:10013C00008008BD0000000068000020682D000849
:10014C0080B400AF034B01221A6000BFBD4680BCD7
:10015C00704700BF8000002080B400AF064B1B68C6
:10016C00012B04D1044B00221A60012300E0002370
:10017C001846BD4680BC70478000002080B500AF9B
:10018C001E4B1B681E4A13601E4B1B681B4A1360D8
:10019C0010211D4801F0AAFD03461A46194B1A609E
:1001AC00174B1A68154B1B689A4225D1134B1A68CA
:1001BC00144B1B689A421FD1144B1A68114B1B68C5
:1001CC009A420DD00F4B1B68104A13600D4B1B68E5
:1001DC00002B11D1FFF7B4FF0D4BC8221A600BE0B6
:1001EC000B4B1B68013B0A4A1360094B1B68002B25
:1001FC0002DC064B01221A6000BF80BD0400002007
:10020C000000002008000020000C01400C00002021
:10021C001000002080B400AF034B01221A6000BF15
:10022C00BD4680BC704700BF8400002080B400AF86
:10023C00064B1B68012B04D1044B00221A600123CE
:10024C0000E000231846BD4680BC704784000020A7
:10025C0080B500AF1E4B1B681E4A13601E4B1B68FB
:10026C001B4A136020211D4801F040FD03461A462D
:10027C00194B1A60174B1A68154B1B689A4225D1FB
:10028C00134B1A68144B1B689A421FD1144B1A68F3
:10029C00114B1B689A420DD00F4B1B68104A136010
:1002AC000D4B1B68002B11D1FFF7B4FF0D4BC8226F
:1002BC001A600BE00B4B1B68013B0A4A1360094B9D
:1002CC001B68002B02DC064B01221A6000BF80BDAC
:1002DC0018000020140000201C000020000C01401D
:1002EC00200000202400002080B400AF034B01222A
:1002FC001A6000BFBD4680BC704700BF880000205C
:10030C0080B400AF064B1B68012B04D1044B0022B8
:10031C001A60012300E000231846BD4680BC7047DC
:10032C008800002080B500AF1E4B1B681E4A13606E
:10033C001E4B1B681B4A136040211D4801F0D6FC64
:10034C0003461A46194B1A60174B1A68154B1B6853
:10035C009A4225D1134B1A68144B1B689A421FD131
:10036C00144B1A68114B1B689A420DD00F4B1B682B
:10037C00104A13600D4B1B68002B11D1FFF7B4FF13
:10038C000D4BC8221A600BE00B4B1B68013B0A4A51
:10039C001360094B1B68002B02DC064B01221A6010
:1003AC0000BF80BD2C000020280000203000002061
:1003BC00000C0140340000203800002080B582B0D1
:1003CC0000AF78607B68092B00F2BC8101A252F867
:1003DC0023F000BF090400085D040008B104000804
:1003EC000505000859050008AD05000801060008C0
:1003FC0055060008A9060008FD0600080022802109
:10040C00D34801F08AFC00224FF48071D04801F0EF
:10041C0084FC00224FF40071CD4801F07EFC0022D8
:10042C004FF48061CA4801F078FC00224FF400615F
:10043C00C74801F072FC00224FF48051C44801F00F
:10044C006CFC01224FF40051C14801F066FC7AE1CA
:10045C0001228021BE4801F060FC00224FF4807123
:10046C00BB4801F05AFC00224FF40071B84801F06F
:10047C0054FC01224FF48061B54801F04EFC01227E
:10048C004FF40061B24801F048FC01224FF4805156
:10049C00AF4801F042FC01224FF40051AC4801F08E
:1004AC003CFC50E100228021A94801F036FC0022DE
:1004BC004FF48071A64801F030FC01224FF400711A
:1004CC00A34801F02AFC00224FF48061A04801F0FF
:1004DC0024FC00224FF400619D4801F01EFC012217
:1004EC004FF480519A4801F018FC00224FF400514F
:1004FC00974801F012FC26E100228021944801F07B
:10050C000CFC00224FF48071914801F006FC002293
:10051C004FF400718E4801F000FC00224FF4806112
:10052C008B4801F0FAFB01224FF40061884801F07E
:10053C00F4FB01224FF48051854801F0EEFB0022C0
:10054C004FF40051824801F0E8FBFCE001228021CD
:10055C007F4801F0E2FB00224FF480717C4801F0EF
:10056C00DCFB00224FF40071794801F0D6FB01222C
:10057C004FF48061764801F0D0FB01224FF400610A
:10058C00734801F0CAFB00224FF48051704801F00F
:10059C00C4FB00224FF400516D4801F0BEFBD2E0C9
:1005AC00002280216A4801F0B8FB01224FF48071CF
:1005BC00674801F0B2FB00224FF40071644801F06F
:1005CC00ACFB00224FF48061614801F0A6FB0122D4
:1005DC004FF400615E4801F0A0FB00224FF4805103
:1005EC005B4801F09AFB00224FF40051584801F08F
:1005FC0094FBA8E000228021554801F08EFB0122DB
:10060C004FF48071524801F088FB00224FF40071C6
:10061C004F4801F082FB00224FF480614C4801F0FE
:10062C007CFB00224FF40061494801F076FB00226C
:10063C004FF48051464801F070FB00224FF40051FA
:10064C00434801F06AFB7EE000228021404801F023
:10065C0064FB00224FF480713D4801F05EFB0022E8
:10066C004FF400713A4801F058FB01224FF48061BD
:10067C00374801F052FB01224FF40061344801F07D
:10068C004CFB01224FF48051314801F046FB012212
:10069C004FF400512E4801F040FB54E00022802121
:1006AC002B4801F03AFB00224FF48071284801F0EE
:1006BC0034FB00224FF40071254801F02EFB002280
:1006CC004FF48061224801F028FB00224FF40061B6
:1006DC001F4801F022FB00224FF480511C4801F00E
:1006EC001CFB00224FF40051194801F016FB2AE0C4
:1006FC0000228021164801F010FB00224FF480717B
:10070C00134801F00AFB00224FF40071104801F06D
:10071C0004FB00224FF480610D4801F0FEFA012227
:10072C004FF400610A4801F0F8FA00224FF48051AE
:10073C00074801F0F2FA00224FF40051044801F08E
:10074C00ECFA00E000BF00BF0837BD4680BD00BF1B
:10075C000008014080B582B000AF78607B68032B45
:10076C005ED801A252F823F085070008AF070008F5
:10077C00D907000803080008002201212E4801F0C7
:10078C00CCFA012202212C4801F0C7FA01220421E3
:10079C00294801F0C2FA01220821274801F0BDFACC
:1007AC003FE001220121244801F0B7FA0022022186
:1007BC00214801F0B2FA012204211F4801F0ADFAE0
:1007CC00012208211C4801F0A8FA2AE0012201218B
:1007DC00194801F0A2FA01220221174801F09DFAF2
:1007EC0000220421144801F098FA01220821124831
:1007FC0001F093FA15E0012201210F4801F08DFA66
:10080C00012202210C4801F088FA012204210A4835
:10081C0001F083FA00220821074801F07EFA00E07B
:10082C0000BF064A7B6852F823301846FFF7C6FD16
:10083C0000BF0837BD4680BD000C01403C000020C5
:10084C0080B483B000AF786039607B68092B03DC1F
:10085C001E4B00221A6008E07B681D4A82FB0312C3
:10086C009210DB17D31A194A13607968184B83FB63
:10087C0001239A10CB17D21A13469B0013445B002A
:10088C00CA1A124B5A603B68092B03DC0F4B00222F
:10089C009A6008E03B680E4A82FB03129210DB1749
:1008AC00D31A0A4A93603968094B83FB01239A10C7
:1008BC00CB17D21A13469B0013445B00CA1A034B86
:1008CC00DA6000BF0C37BD4680BC70473C0000208E
:1008DC006766666680B500AF994B1B68013B042BBD
:1008EC0000F2948101A252F823F000BF0D09000818
:1008FC0055090008FB090008A90A00086D0B00083F
:10090C008F4B02221A608F4B9B688F4A13608D4B62
:10091C001B688E4A13608C4B1B688C4A12681146FC
:10092C001846FFF78DFF884B1B684FF47A7202FB59
:10093C0003F3184600F0C8FC4FF47A7000F0E0FCAA
:10094C00C82000F0F9FC6AE100F0E2FD804B1B6866
:10095C00012B0FD17A4B03221A607A4B5B687A4ACF
:10096C001360794B1B684FF47A7202FB03F3184641
:10097C0000F0AAFC774B1B68012B15D1724B1B683E
:10098C00724A126811461846FFF75AFF6E4B1B68E5
:10099C00013B6D4A13606D4B1B68013B6B4A136046
:1009AC004FF47A7000F0ACFC6B4B1B68012B14D12C
:1009BC006A4B1B681846FFF7CDFE684B1B68022B71
:1009CC0003DD664B00221A6004E0644B1B680133A4
:1009DC00624A1360C82000F0AFFCFFF7BDFB034672
:1009EC00012B40F01581564B0B221A6010E100F0E0
:1009FC00B3FD574B1B68012B13D1514B04221A60CA
:100A0C00504B1B68504A13604E4B9B684F4A136007
:100A1C004E4B1B684FF47A7202FB03F3184600F03E
:100A2C0053FC4C4B1B68012B15D1474B1B68474A99
:100A3C00126811461846FFF703FF4FF47A7000F066
:100A4C005FFC414B1B68013B3F4A13603F4B1B68EB
:100A5C00013B3E4A1360404B1B68012B14D13F4BAA
:100A6C001B681846FFF776FE3C4B1B68022B03DD18
:100A7C003A4B00221A6004E0384B1B680133374AAA
:100A8C001360C82000F058FCFFF766FB0346012BEF
:100A9C0040F0C0802A4B0B221A60BBE000F080FDB6
:100AAC002B4B1B68012B0FD1254B05221A60254BB4
:100ABC005B68264A1360254B1B684FF47A7202FB65
:100ACC0003F3184600F000FC224B1B68012B15D1D8
:100ADC004FF47A7000F014FC1B4B1B681B4A126815
:100AEC0011461846FFF7ACFE174B1B68013B164A24
:100AFC001360164B1B68013B144A1360164B1B68A2
:100B0C00012B14D1154B1B681846FFF723FE134B12
:100B1C001B68022B03DD114B00221A6004E00F4B03
:100B2C001B6801330D4A1360C82000F005FCFFF769
:100B3C0013FB0346012B6FD1014B0B221A606BE0A8
:100B4C00B80000204C000020AC000020A8000020C1
:100B5C00940000209C000020A40000208C000020A9
:100B6C0000F042FD2F4B1B68012B13D12E4B0222A0
:100B7C001A602E4B9B682E4A13602C4B1B682D4A17
:100B8C0013602B4B1B684FF47A7202FB03F318466D
:100B9C0000F09AFB284B1B68012B15D14FF47A708F
:100BAC0000F0AEFB224B1B68224A12681146184615
:100BBC00FFF746FE1E4B1B68013B1D4A13601D4B85
:100BCC001B68013B1B4A13601C4B1B68012B14D187
:100BDC001B4B1B681846FFF7BDFD194B1B68022BFE
:100BEC0003DD174B00221A6004E0154B1B68013320
:100BFC00134A1360C82000F09FFBFFF7ADFA0346C1
:100C0C00012B0BD1084B0B221A6007E000BF06E04A
:100C1C0000BF04E000BF02E000BF00E000BF00BF67
:100C2C0080BD00BF94000020B80000204C000020C4
:100C3C00AC000020A80000209C000020A400002094
:100C4C008C00002080B500AFA34B1B680B3B052B21
:100C5C0000F2E78101A252F823F000BF810C0008DA
:100C6C00B90C0008B50D0008ED0D0008010F0008C7
:100C7C00390F000842F2107000F026FB964B0C2244
:100C8C001A604FF4FA7000F03BFB944B01221A608F
:100C9C00C82000F051FB924B00221A6000F0C8FCF7
:100CAC008E4B1B6819460220FFF7CAFD8D4B1B6843
:100CBC00012B02D1884B01221A608B4B1B68012B34
:100CCC0005D100F0D9FC4FF4FA7000F019FB874BFA
:100CDC001B68012B14D1824B1B681846FFF73AFD99
:100CEC007F4B1B68022B03DD7D4B00221A6004E056
:100CFC007B4B1B6801337A4A1360C82000F01CFB45
:100D0C00FFF72AFA0346012B06D1734B0D221A600A
:100D1C0042F2107000F0D8FAFFF788FA0346012B64
:100D2C0011D16E4B1B6801336C4A13606B4B1B6803
:100D3C00632B02DD694B01221A60684B1B68194654
:100D4C000220FFF77DFDFFF7DBFA0346012B40F095
:100D5C006A81624B1B681946002000F079F9644BDC
:100D6C001B68634A52681146184600F083F9034623
:100D7C00012B0BD10121012000F06AF9574B1B68A4
:100D8C00013B1946022000F063F908E0534B1A6846
:100D9C00574B5B68D31A1946022000F059F942F2FE
:100DAC00107000F091FA3EE142F2107000F08CFAF3
:100DBC00494B0E221A604FF4FA7000F0A1FA474B1F
:100DCC0001221A60C82000F0B7FA454B00221A60C5
:100DDC0000F02EFC414B1B6819460320FFF730FD39
:100DEC00404B1B68012B02D13B4B01221A603E4B3E
:100DFC001B68012B05D100F04DFC4FF4FA7000F08C
:100E0C007FFA3A4B1B68012B14D1354B1B681846E3
:100E1C00FFF7A0FC324B1B68022B03DD304B00228A
:100E2C001A6004E02E4B1B6801332D4A1360C82056
:100E3C0000F082FAFFF790F90346012B06D1264BFE
:100E4C000F221A6042F2107000F03EFAFFF7EEF932
:100E5C000346012B11D1214B1B6801331F4A136030
:100E6C001E4B1B68632B02DD1C4B01221A601B4BB3
:100E7C001B6819460320FFF7E3FCFFF741FA034612
:100E8C00012B40F0D280154B1B681946012000F055
:100E9C00DFF8174B1B68164A52681146184600F0CB
:100EAC00E9F80346012B09D1114B9A680B4B1B68CF
:100EBC0013441946002000F0CBF808E0074B1A68E1
:100ECC000B4B5B68D31A1946022000F0C1F842F2B2
:100EDC00107000F0F9F9A8E0B8000020B000002074
:100EEC00B4000020940000209C000020A4000020EE
:100EFC004C00002042F2107000F0E6F94D4B10222D
:100F0C001A604FF4FA7000F0FBF94B4B01221A6097
:100F1C00C82000F011FA494B00221A6000F088FB3F
:100F2C00454B1B6819460420FFF78AFC444B1B6891
:100F3C00012B02D13F4B01221A60424B1B68012B43
:100F4C0005D100F0B5FB4FF4FA7000F0D9F93E4B27
:100F5C001B68012B14D1394B1B681846FFF7FAFBA1
:100F6C00364B1B68022B03DD344B00221A6004E065
:100F7C00324B1B680133314A1360C82000F0DCF996
:100F8C00FFF7EAF80346012B06D12A4B01221A601F
:100F9C004FF4FA6000F098F9FFF748F90346012B7B
:100FAC0011D1254B1B680133234A1360224B1B685C
:100FBC00632B02DD204B01221A601F4B1B68194664
:100FCC000420FFF73DFCFFF79BF90346012B2ED1C4
:100FDC00194B1B681946022000F03AF81B4B1B6892
:100FEC001A4A92681146184600F044F80346012B41
:100FFC0009D1164B5A68104B1B6813441946002034
:10100C0000F026F808E0114B1A680B4B1B68D31A3A
:10101C001946012000F01CF842F2107000F054F94F
:10102C0005E000BF04E000BF02E000BF00E000BF2D
:10103C0000BF80BDB8000020B0000020B40000202C
:10104C00940000209C000020A40000204C000020F4
:10105C0080B483B000AF7860396005497B683A682A
:10106C0041F8232000BF0C37BD4680BC704700BF41
:10107C004C00002080B483B000AF786039607A688F
:10108C003B689A42D4BF01230023DBB218460C37CD
:10109C00BD4680BC7047000080B500AF00F03CFB43
:1010AC0000F014F800F09AF800F04CF8054801F044
:1010BC0091FA054B01221A60FFF70CFCFFF7C2FDF9
:1010CC00FAE700BFBC000020B800002080B590B04B
:1010DC0000AF07F1180328220021184601F036FE54
:1010EC003B1D00221A605A609A60DA601A61022372
:1010FC00BB610123BB621023FB6200237B6307F1FE
:10110C001803184600F03AFE0346002B01D000F0FD
:10111C00D5F80F237B600023BB600023FB6000230A
:10112C003B6100237B613B1D0021184601F0A6F8B2
:10113C000346002B01D000F0C1F800BF4037BD467C
:10114C0080BD000080B586B000AF07F10803002217
:10115C001A605A609A60DA603B4600221A605A6044
:10116C001D4B4FF080421A601B4B41F63F725A6088
:10117C00194B00229A60184B0922DA60164B002298
:10118C001A61154B00229A61134801F0D3F90346FA
:10119C00002B01D000F092F84FF48053BB6007F1A4
:1011AC00080319460C4801F069FB0346002B01D0DB
:1011BC0000F084F800233B6000237B603B4619461B
:1011CC00054801F035FD0346002B01D000F076F800
:1011DC0000BF1837BD4680BDBC00002080B586B06E
:1011EC0000AF07F1080300221A605A609A60DA60B7
:1011FC00274B9B69264A43F004039361244B9B695C
:10120C0003F004037B607B68214B9B69204A43F00D
:10121C00080393611E4B9B6903F008033B603B681A
:10122C00002243F6FE711B4800F077FD00220F21CF
:10123C00194800F072FD43F6FE73BB600123FB609E
:10124C0000233B6102237B6107F108031946114817
:10125C0000F0D2FB0F23BB600123FB6000233B613A
:10126C0002237B6107F1080319460B4800F0C4FB0D
:10127C007023BB600023FB6001233B6107F1080373
:10128C001946054800F0B8FB00BF1837BD4680BDB5
:10129C000010024000080140000C014080B582B0F3
:1012AC0000AF786000F064F8FEF768FFFEF7D0FF3F
:1012BC00FFF738F800BF0837BD4680BD80B400AFDB
:1012CC0072B600BFFEE7000080B483B000AF786058
:1012DC007B68084A82FB03129210DB17D31A064A6A
:1012EC001360064B00221A6000BF0C37BD4680BC51
:1012FC00704700BF6766666690000020940000206F
:10130C0080B483B000AF78607B68084A82FB03121C
:10131C009210DB17D31A064A1360064B00221A6090
:10132C0000BF0C37BD4680BC704700BF6766666661
:10133C00980000209C00002080B483B000AF78603F
:10134C007B68084A82FB03129210DB17D31A064AF9
:10135C001360064B00221A6000BF0C37BD4680BCE0
:10136C00704700BF67666666A0000020A4000020DE
:10137C0080B400AF194B1B68002B0BDD174B1B689F
:10138C00013B164A1360154B1B68002B02DC144BF7
:10139C0001221A60134B1B68002B0BDD114B1B68D1
:1013AC00013B104A13600F4B1B68002B02DC0E4BE9
:1013BC0001221A600D4B1B68002B0BDD0B4B1B68BD
:1013CC00013B0A4A1360094B1B68002B02DC084BDB
:1013DC0001221A6000BFBD4680BC704790000020FF
:1013EC0094000020980000209C000020A000002009
:1013FC00A400002080B485B000AF154B9B69144A43
:10140C0043F001039361124B9B6903F00103BB6032
:10141C00BB680F4BDB690E4A43F08053D3610C4B16
:10142C00DB6903F080537B607B680A4B5B68FB6075
:10143C00FB6823F0E063FB60FB6843F08063FB60B8
:10144C00044AFB68536000BF1437BD4680BC70472C
:10145C00001002400000014080B584B000AF7860FD
:10146C007B681B68B3F1804F13D10C4BDB690B4AC3
:10147C0043F00103D361094BDB6903F00103FB600B
:10148C00FB68002200211C2000F07FFA1C2000F0D9
:10149C0098FA00BF1037BD4680BD00BF0010024057
:1014AC0080B400AFFEE780B400AFFEE780B400AFBD
:1014BC00FEE780B400AFFEE780B400AFFEE780B477
:1014CC0000AF00BFBD4680BC704780B400AF00BF0A
:1014DC00BD4680BC704780B400AF00BFBD4680BC29
:1014EC00704780B500AF00F05DF900BF80BD000013
:1014FC0080B500AF024801F0B9F800BF80BD00BF55
:10150C00BC00002080B400AF00BFBD4680BC70475B
:10151C0080B500AF002208210E4800F0FEFB01222E
:10152C0004210C4800F0F9FB01220221094800F0CB
:10153C00F4FB01224021074800F0EFFB012220219F
:10154C00044800F0EAFB00221021024800F0E5FB01
:10155C0000BF80BD0008014080B500AF012208210A
:10156C000E4800F0DAFB002204210C4800F0D5FBF9
:10157C0001220221094800F0D0FB0122402107483A
:10158C0000F0CBFB01222021044800F0C6FB002216
:10159C001021024800F0C1FB00BF80BD00080140D3
:1015AC0080B500AF012208210E4800F0B6FB0122E5
:1015BC0004210C4800F0B1FB00220221094800F084
:1015CC00ACFB00224021074800F0A7FB01222021A0
:1015DC00044800F0A2FB01221021024800F09DFB00
:1015EC0000BF80BD0008014080B500AF012208217A
:1015FC000E4800F092FB012204210C4800F08DFBF8
:10160C0000220221094800F088FB012240210748F2
:10161C0000F083FB00222021044800F07EFB012215
:10162C001021024800F079FB00BF80BD000801408A
:10163C0080B500AF012208210E4800F06EFB01229C
:10164C0004210C4800F069FB01220221094800F03A
:10165C0064FB01224021074800F05FFB012220219E
:10166C00044800F05AFB01221021024800F055FBFF
:10167C0000BF80BD0008014080B500AF02210448C6
:10168C0000F063FB1021024800F05FFB00BF80BD3F
:10169C000008014080B500AF0421044800F055FB60
:1016AC002021024800F051FB00BF80BD0008014022
:1016BC0080B500AF0821044800F047FB40210248E8
:1016CC0000F043FB00BF80BD00080140FFF71AFF8C
:1016DC000B480C490C4A002302E0D458C450043384
:1016EC00C4188C42F9D3094A094C002301E0136059
:1016FC000432A242FBD301F005FBFFF7CDFC70478F
:10170C000000002064000020AC2D000864000020C4
:10171C0008010020FEE7000080B500AF084B1B68F5
:10172C00074A43F010031360032000F023F90F2045
:10173C0000F008F8FFF75EFE0023184680BD00BFDE
:10174C000020024080B582B000AF7860124B1A685E
:10175C00124B1B7819464FF47A73B3FBF1F3B2FBBF
:10176C00F3F3184600F03BF90346002B01D001239C
:10177C000EE07B680F2B0AD8002279684FF0FF30FF
:10178C0000F003F9064A7B681360002300E0012394
:10179C0018460837BD4680BD580000206000002068
:1017AC005C00002080B400AF054B1B781A46054B3B
:1017BC001B681344034A136000BFBD4680BC7047CE
:1017CC00600000200401002080B400AF024B1B68B5
:1017DC001846BD4680BC70470401002080B485B01B
:1017EC0000AF78607B6803F00703FB600C4BDB6891
:1017FC00BB60BA684FF6FF031340BB60FB681A026C
:10180C00BB68134343F0BF6343F40033BB60044A2B
:10181C00BB68D36000BF1437BD4680BC704700BFA7
:10182C0000ED00E080B400AF044BDB681B0A03F052
:10183C0007031846BD4680BC704700BF00ED00E0B2
:10184C0080B483B000AF0346FB7197F90730002BCF
:10185C000BDBFB7903F01F02064997F907305B0994
:10186C00012000FA02F241F8232000BF0C37BD46DC
:10187C0080BC704700E100E080B483B000AF034649
:10188C003960FB7197F90730002B0ADB3B68DAB241
:10189C000C4997F907301201D2B20B4483F800239C
:1018AC000AE03B68DAB20849FB7903F00F03043B0A
:1018BC001201D2B20B441A7600BF0C37BD4680BC65
:1018CC00704700BF00E100E000ED00E080B489B09B
:1018DC0000AFF860B9607A60FB6803F00703FB6146
:1018EC00FB69C3F10703042B28BF0423BB61FB690D
:1018FC000433062B02D9FB69033B00E000237B6118
:10190C004FF0FF32BB6902FA03F3DA43BB681A40AB
:10191C007B699A404FF0FF317B6901FA03F3D9439D
:10192C007B680B40134318462437BD4680BC704778
:10193C0080B582B000AF78607B68013BB3F1807FEB
:10194C0001D301230FE00A4A7B68013B53600F214E
:10195C004FF0FF30FFF790FF054B00229A60044BCD
:10196C0007221A60002318460837BD4680BD00BF09
:10197C0010E000E080B582B000AF78607868FFF7C7
:10198C002DFF00BF0837BD4680BD80B586B000AFC7
:10199C000346B9607A60FB7300237B61FFF742FF5B
:1019AC0078617A68B9687869FFF790FF024697F911
:1019BC000F3011461846FFF75FFF00BF1837BD46C2
:1019CC0080BD80B582B000AF0346FB7197F907303C
:1019DC001846FFF735FF00BF0837BD4680BD80B500
:1019EC0082B000AF78607868FFF7A2FF0346184614
:1019FC000837BD4680BD000080B48BB000AF786066
:101A0C00396000237B6200233B6248E101227B6A40
:101A1C0002FA03F3FB613B681B68FA691340BB6174
:101A2C00BA69FB699A4240F037813B685B68A34A0C
:101A3C0093425ED0A14A934275D8A14A934258D0A2
:101A4C009F4A93426FD89F4A934252D09D4A9342E9
:101A5C0069D89D4A93424CD09B4A934263D89B4A87
:101A6C00934246D0994A93425DD8122B2AD8122B16
:101A7C0059D801A252F823F0FF1A0008D91A00080D
:101A8C00EB1A00082D1B0008331B0008331B000841
:101A9C00331B0008331B0008331B0008331B0008E2
:101AAC00331B0008331B0008331B0008331B0008D2
:101ABC00331B0008331B0008331B0008E11A000815
:101ACC00F51A0008824A934213D02CE03B68DB687D
:101ADC003B6229E03B68DB6804333B6224E03B68F3
:101AEC00DB6808333B621FE03B68DB680C333B620E
:101AFC001AE03B689B68002B02D104233B6213E085
:101B0C003B689B68012B05D108233B627B68FA6913
:101B1C001A6109E008233B627B68FA695A6103E0A9
:101B2C0000233B6200E000BFBB69FF2B01D87B6840
:101B3C0001E07B6804337B61BB69FF2B02D87B6AB5
:101B4C009B0002E07B6A083B9B003B617B691A6847
:101B5C000F213B6901FA03F3DB431A40396A3B69F5
:101B6C0001FA03F31A437B691A603B685B6803F064
:101B7C008053002B00F09080564B9B69554A43F0E4
:101B8C0001039361534B9B6903F00103BB60BB687A
:101B9C00514A7B6A9B08023352F82330FB607B6A04
:101BAC0003F003039B000F2202FA03F3DB43FA68F2
:101BBC001340FB607B68494A93420DD07B68484ACE
:101BCC00934207D07B68474A934201D1022304E039
:101BDC00032302E0012300E000237A6A02F00302EF
:101BEC0092009340FA681343FB603B497B6A9B0865
:101BFC000233FA6841F823203B685B6803F48013D6
:101C0C00002B06D0384B9A683749BB6913438B605D
:101C1C0006E0354B9A68BB69DB43334913408B6054
:101C2C003B685B6803F40013002B06D02E4BDA687C
:101C3C002D49BB691343CB6006E02B4BDA68BB69BB
:101C4C00DB4329491340CB603B685B6803F40033EA
:101C5C00002B06D0244B5A682349BB6913434B60B5
:101C6C0006E0214B5A68BB69DB431F4913404B60AC
:101C7C003B685B6803F48033002B06D01A4B1A6860
:101C8C001949BB6913430B6006E0174B1A68BB6913
:101C9C00DB43154913400B607B6A01337B623B6865
:101CAC001A687B6A22FA03F3002B7FF4AFAE00BFF5
:101CBC0000BF2C37BD4680BC704700BF00003210FF
:101CCC000000311000002210000021100000121042
:101CDC0000001110001002400000014000080140FB
:101CEC00000C0140001001400004014080B485B09C
:101CFC0000AF78600B467B807B689A687B881340CA
:101D0C00002B02D00123FB7301E00023FB73FB7B50
:101D1C0018461437BD4680BC704780B483B000AF02
:101D2C0078600B467B8013467B707B78002B03D04E
:101D3C007A887B681A6103E07B881A047B681A61D5
:101D4C0000BF0C37BD4680BC704780B485B000AF77
:101D5C0078600B467B807B68DB68FB607A88FB686D
:101D6C0013401A04FB68D9437B880B401A437B68E9
:101D7C001A6100BF1437BD4680BC704780B586B071
:101D8C0000AF78607B68002B01D101236CE27B688B
:101D9C001B6803F00103002B00F08780924B5B68FB
:101DAC0003F00C03042B0CD08F4B5B6803F00C037B
:101DBC00082B12D18C4B5B6803F48033B3F5803F56
:101DCC000BD1894B1B6803F40033002B6CD07B6860
:101DDC005B68002B68D1012346E27B685B68B3F536
:101DEC00803F06D1804B1B687F4A43F480331360DD
:101DFC002EE07B685B68002B0CD17B4B1B687A4A0E
:101E0C0023F480331360784B1B68774A23F48023C8
:101E1C0013601DE07B685B68B3F5A02F0CD1724B8F
:101E2C001B68714A43F4802313606F4B1B686E4A26
:101E3C0043F4803313600BE06B4B1B686A4A23F44A
:101E4C0080331360684B1B68674A23F4802313604C
:101E5C007B685B68002B13D0FFF7B6FC386108E099
:101E6C00FFF7B2FC02463B69D31A642B01D903235A
:101E7C00FAE15D4B1B6803F40033002BF0D014E047
:101E8C00FFF7A2FC386108E0FFF79EFC02463B69B5
:101E9C00D31A642B01D90323E6E1534B1B6803F4DB
:101EAC000033002BF0D100E000BF7B681B6803F00F
:101EBC000203002B63D04C4B5B6803F00C03002B2C
:101ECC000BD0494B5B6803F00C03082B1CD1464B21
:101EDC005B6803F48033002B16D1434B1B6803F073
:101EEC000203002B05D07B681B69012B01D0012359
:101EFC00BAE13D4B1B6823F0F8027B685B69DB00A1
:101F0C00394913430B603AE07B681B69002B20D0E6
:101F1C00364B01221A60FFF757FC386108E0FFF7D7
:101F2C0053FC02463B69D31A022B01D903239BE1D4
:101F3C002D4B1B6803F00203002BF0D02A4B1B68BF
:101F4C0023F0F8027B685B69DB00274913430B60C5
:101F5C0015E0264B00221A60FFF736FC386108E0CA
:101F6C00FFF732FC02463B69D31A022B01D903233B
:101F7C007AE11D4B1B6803F00203002BF0D17B6848
:101F8C001B6803F00803002B3AD07B689B69002B7D
:101F9C0019D0174B01221A60FFF716FC386108E0C4
:101FAC00FFF712FC02463B69D31A022B01D903231B
:101FBC005AE10D4B5B6A03F00203002BF0D00120B9
:101FCC0000F09AFA1CE00A4B00221A60FFF7FCFBA7
:101FDC0038610FE0FFF7F8FB02463B69D31A022B7E
:101FEC0008D9032340E100BF001002400000424228
:101FFC00800442429E4B5B6A03F00203002BE9D142
:10200C007B681B6803F00403002B00F0A680002300
:10201C00FB75974BDB6903F08053002B0DD1944B70
:10202C00DB69934A43F08053D361914BDB6903F036
:10203C008053BB60BB680123FB758E4B1B6803F49C
:10204C008073002B18D18B4B1B688A4A43F4807326
:10205C001360FFF7B9FB386108E0FFF7B5FB0246E8
:10206C003B69D31A642B01D90323FDE0814B1B6818
:10207C0003F48073002BF0D07B68DB68012B06D156
:10208C007B4B1B6A7A4A43F0010313622DE07B6899
:10209C00DB68002B0CD1764B1B6A754A23F00103CD
:1020AC001362734B1B6A724A23F0040313621CE025
:1020BC007B68DB68052B0CD16D4B1B6A6C4A43F0BB
:1020CC00040313626A4B1B6A694A43F001031362EF
:1020DC000BE0674B1B6A664A23F001031362644BE7
:1020EC001B6A634A23F0040313627B68DB68002BD2
:1020FC0015D0FFF769FB38610AE0FFF765FB024674
:10210C003B69D31A41F28832934201D90323ABE0E5
:10211C00574B1B6A03F00203002BEED014E0FFF7C1
:10212C0053FB38610AE0FFF74FFB02463B69D31AB9
:10213C0041F28832934201D9032395E04C4B1B6A40
:10214C0003F00203002BEED1FB7D012B05D1484B94
:10215C00DB69474A23F08053D3617B68DB69002B32
:10216C0000F08180424B5B6803F00C03082B61D0BC
:10217C007B68DB69022B46D13F4B00221A60FFF7CC
:10218C0023FB386108E0FFF71FFB02463B69D31ABB
:10219C00022B01D9032367E0354B1B6803F0007356
:1021AC00002BF0D17B681B6AB3F5803F08D1304B14
:1021BC005B6823F400327B689B682D4913434B60AA
:1021CC002B4B5B6823F474127B68196A7B685B6A1F
:1021DC000B43274913434B60274B01221A60FFF72F
:1021EC00F3FA386108E0FFF7EFFA02463B69D31ABD
:1021FC00022B01D9032337E01D4B1B6803F000733E
:10220C00002BF0D02FE01C4B00221A60FFF7DCFAF9
:10221C00386108E0FFF7D8FA02463B69D31A022B63
:10222C0001D9032320E0124B1B6803F00073002B31
:10223C00F0D118E07B68DB69012B01D1012313E09D
:10224C000B4B5B68FB60FB6803F480327B681B6A9A
:10225C009A4206D1FB6803F470127B685B6A9A425F
:10226C0001D0012300E0002318461837BD4680BD7D
:10227C0000100240007000406000424280B584B003
:10228C0000AF786039607B68002B01D10123D0E06E
:10229C006A4B1B6803F007033A689A4210D9674BE4
:1022AC001B6823F0070265493B6813430B60634BC3
:1022BC001B6803F007033A689A4201D00123B8E087
:1022CC007B681B6803F00203002B20D07B681B6823
:1022DC0003F00403002B05D0594B5B68584A43F4B8
:1022EC00E06353607B681B6803F00803002B05D088
:1022FC00534B5B68524A43F460535360504B5B68DA
:10230C0023F0F0027B689B684D4913434B607B685C
:10231C001B6803F00103002B40D07B685B68012B2A
:10232C0007D1474B1B6803F40033002B15D1012355
:10233C007FE07B685B68022B07D1414B1B6803F085
:10234C000073002B09D1012373E03D4B1B6803F094
:10235C000203002B01D101236BE0394B5B6823F0A6
:10236C0003027B685B68364913434B60FFF72CFA1A
:10237C00F8600AE0FFF728FA0246FB68D31A41F22C
:10238C008832934201D9032353E02D4B5B6803F051
:10239C000C027B685B689B009A42EBD1274B1B6855
:1023AC0003F007033A689A4210D2244B1B6823F0BF
:1023BC00070222493B6813430B60204B1B6803F058
:1023CC0007033A689A4201D0012332E07B681B680C
:1023DC0003F00403002B08D0194B5B6823F4E06274
:1023EC007B68DB68164913434B607B681B6803F002
:1023FC000803002B09D0124B5B6823F460527B68F6
:10240C001B69DB000E4913434B6000F021F80246B8
:10241C000B4B5B681B0903F00F030A49CB5C22FAD8
:10242C0003F3094A1360094B1B681846FFF78AF936
:10243C00002318461037BD4680BD00BF0020024067
:10244C0000100240802D0008580000205C00002085
:10245C0080B487B000AF0023FB600023BB60002377
:10246C007B6100237B6000233B611E4B5B68FB6040
:10247C00FB6803F00C03042B02D0082B03D027E0DD
:10248C00194B3B6127E0FB689B0C03F00F03174AC9
:10249C00D35C7B60FB6803F48033002B10D0114BB2
:1024AC005B685B0C03F00103114AD35CBB607B6877
:1024BC000D4A02FB03F2BB68B2FBF3F37B6104E051
:1024CC007B680C4A02FB03F37B617B693B6102E096
:1024DC00054B3B6100BF3B6918461C37BD4680BCB1
:1024EC00704700BF0010024000127A00902D0008C7
:1024FC00A02D000800093D0080B485B000AF7860C5
:10250C000A4B1B680A4AA2FB03235B0A7A6802FB8C
:10251C0003F3FB6000BFFB685A1EFA60002BF9D175
:10252C0000BF00BF1437BD4680BC70475800002068
:10253C00D34D621080B582B000AF78607B68002B01
:10254C0001D1012341E07B6893F83D30DBB2002BD5
:10255C0006D17B68002283F83C207868FEF77CFF6C
:10256C007B68022283F83D207B681A687B68043301
:10257C001946104600F06EFA7B68012283F846205B
:10258C007B68012283F83E207B68012283F83F2080
:10259C007B68012283F840207B68012283F841206C
:1025AC007B68012283F842207B68012283F8432058
:1025BC007B68012283F844207B68012283F8452044
:1025CC007B68012283F83D20002318460837BD465E
:1025DC0080BD000080B485B000AF78607B6893F854
:1025EC003D30DBB2012B01D0012335E07B680222A8
:1025FC0083F83D207B681B68DA687B681B6842F0B7
:10260C000102DA607B681B68164A934209D07B682A
:10261C001B68B3F1804F04D07B681B68124A93424D
:10262C0011D17B681B689B6803F00703FB60FB6898
:10263C00062B10D07B681B681A687B681B6842F0FD
:10264C0001021A6007E07B681B681A687B681B68CC
:10265C0042F001021A60002318461437BD4680BCB4
:10266C00704700BF002C01400004004080B582B0D0
:10267C0000AF78607B681B681B6903F00203022BB8
:10268C0022D17B681B68DB6803F00203022B1BD191
:10269C007B681B686FF002021A617B6801221A7753
:1026AC007B681B689B6903F00303002B03D07868DD
:1026BC0000F0B4F905E0786800F0A7F9786800F04C
:1026CC00B6F97B6800221A777B681B681B6903F0DC
:1026DC000403042B22D17B681B68DB6803F0040322
:1026EC00042B1BD17B681B686FF004021A617B689A
:1026FC0002221A777B681B689B6903F44073002BDA
:10270C0003D0786800F08AF905E0786800F07DF96C
:10271C00786800F08CF97B6800221A777B681B685C
:10272C001B6903F00803082B22D17B681B68DB684C
:10273C0003F00803082B1BD17B681B686FF00802A1
:10274C001A617B6804221A777B681B68DB6903F0CB
:10275C000303002B03D0786800F060F905E078687B
:10276C0000F053F9786800F062F97B6800221A7760
:10277C007B681B681B6903F01003102B22D17B684C
:10278C001B68DB6803F01003102B1BD17B681B68E4
:10279C006FF010021A617B6808221A777B681B683D
:1027AC00DB6903F44073002B03D0786800F036F932
:1027BC0005E0786800F029F9786800F038F97B6852
:1027CC0000221A777B681B681B6903F00103012B3D
:1027DC000ED17B681B68DB6803F00103012B07D16A
:1027EC007B681B686FF001021A617868FEF756FD72
:1027FC007B681B681B6903F08003802B0ED17B6800
:10280C001B68DB6803F08003802B07D17B681B6897
:10281C006FF080021A61786800F06BFA7B681B68B5
:10282C001B6903F04003402B0ED17B681B68DB68EF
:10283C0003F04003402B07D17B681B686FF040020C
:10284C001A61786800F0FCF87B681B681B6903F060
:10285C002003202B0ED17B681B68DB6803F0200360
:10286C00202B07D17B681B686FF020021A617868F7
:10287C0000F036FA00BF0837BD4680BD80B584B085
:10288C0000AF786039600023FB737B6893F83C30B1
:10289C00012B01D10223B4E07B68012283F83C2098
:1028AC007B68022283F83D207B681B689B68BB60B9
:1028BC00BB6823F07703BB60BB6823F47F43BB602A
:1028CC007B681B68BA689A603B681B68B3F5005F4D
:1028DC003ED0B3F5005F00F28780B3F5805F00F067
:1028EC008680B3F5805F7FD8702B1AD0702B7BD885
:1028FC00602B50D0602B77D8502B3CD0502B73D8FA
:10290C00402B58D0402B6FD8302B64D0302B6BD849
:10291C00202B60D0202B67D8002B5CD0102B5AD0EA
:10292C0062E07B6818683B6899683B685A683B684A
:10293C00DB6800F05EF97B681B689B68BB60BB685A
:10294C0043F07703BB607B681B68BA689A604FE002
:10295C007B6818683B6899683B685A683B68DB6819
:10296C0000F047F97B681B689A687B681B6842F427
:10297C0080429A603CE07B6818683B6859683B6809
:10298C00DB681A4600F0BEF87B681B6850211846BD
:10299C0000F015F92CE07B6818683B6859683B68B7
:1029AC00DB681A4600F0DCF87B681B68602118466F
:1029BC0000F005F91CE07B6818683B6859683B68B7
:1029CC00DB681A4600F09EF87B681B6840211846AD
:1029DC0000F0F5F80CE07B681A683B681B68194638
:1029EC00104600F0ECF803E00123FB7300E000BF9D
:1029FC007B68012283F83D207B68002283F83C2011
:102A0C00FB7B18461037BD4680BD80B483B000AF49
:102A1C00786000BF0C37BD4680BC704780B483B073
:102A2C0000AF786000BF0C37BD4680BC704780B4E7
:102A3C0083B000AF786000BF0C37BD4680BC7047D8
:102A4C0080B483B000AF786000BF0C37BD4680BC4B
:102A5C007047000080B485B000AF786039607B6847
:102A6C001B68FB607B68254A934207D07B68B3F1F7
:102A7C00804F03D07B68224A934208D1FB6823F035
:102A8C007003FB603B685B68FA681343FB607B6810
:102A9C001A4A934207D07B68B3F1804F03D07B680E
:102AAC00174A934208D1FB6823F44073FB603B68E0
:102ABC00DB68FA681343FB60FB6823F080023B6819
:102ACC005B691343FB607B68FA681A603B689A6821
:102ADC007B68DA623B681A687B689A627B68074A93
:102AEC00934203D13B681A697B681A637B680122A5
:102AFC005A6100BF1437BD4680BC7047002C0140A2
:102B0C000004004080B487B000AFF860B9607A6010
:102B1C00FB681B6A7B61FB681B6A23F00102FB6884
:102B2C001A62FB689B693B613B6923F0F0033B61D4
:102B3C007B681B013A6913433B617B6923F00A03F1
:102B4C007B617A69BB6813437B61FB683A699A6164
:102B5C00FB687A691A6200BF1C37BD4680BC70479F
:102B6C0080B487B000AFF860B9607A60FB681B6A0C
:102B7C007B61FB681B6A23F01002FB681A62FB681E
:102B8C009B693B613B6923F470433B617B681B038E
:102B9C003A6913433B617B6923F0A0037B61BB68FB
:102BAC001B017A6913437B61FB683A699A61FB6884
:102BBC007A691A6200BF1C37BD4680BC704780B46E
:102BCC0085B000AF786039607B689B68FB60FB6800
:102BDC0023F07003FB603A68FB68134343F0070370
:102BEC00FB607B68FA689A6000BF1437BD4680BCF6
:102BFC00704780B487B000AFF860B9607A603B6012
:102C0C00FB689B687B617B6923F47F437B613B683A
:102C1C001A027B681A43BB6813437A6913437B61BE
:102C2C00FB687A699A6000BF1C37BD4680BC704750
:102C3C0080B485B000AF786039607B6893F83C3025
:102C4C00012B01D1022341E07B68012283F83C2057
:102C5C007B68022283F83D207B681B685B68FB6005
:102C6C007B681B689B68BB60FB6823F07003FB6090
:102C7C003B681B68FA681343FB607B681B68FA6847
:102C8C005A607B681B68144A934209D07B681B68A6
:102C9C00B3F1804F04D07B681B68104A93420CD16F
:102CAC00BB6823F08003BB603B685B68BA68134366
:102CBC00BB607B681B68BA689A607B68012283F8EA
:102CCC003D207B68002283F83C20002318461437F3
:102CDC00BD4680BC704700BF002C01400004004082
:102CEC0080B483B000AF786000BF0C37BD4680BCA9
:102CFC00704780B483B000AF786000BF0C37BD461E
:102D0C0080BC704770B500260C4D0D4C641BA41094
:102D1C00A64209D100F022F800260A4D0A4C641B89
:102D2C00A410A64205D170BD55F8043B9847013656
:102D3C00EEE755F8043B98470136F2E7A42D00085E
:102D4C00A42D0008A42D0008A82D00080346024459
:102D5C00934200D1704703F8011BF9E7F8B500BFA7
:102D6C00F8BC08BC9E467047F8B500BFF8BC08BC60
:042D7C009E467047B8
:102D8000000000000000000001020304060708091B
:102D900002030405060708090A0B0C0D0E0F10109C
:042DA000010200002C
:042DA40031010008F1
:042DA8000D01000811
:102DAC000100000001000000010000000100000013
:102DBC00C80000000100000001000000010000003C
:102DCC0001000000C800000001000000010000002C
:102DDC000100000001000000C8000000010000001C
:102DEC0002000000030000000400000005000000C9
:102DFC0002000000030000000024F400100000009A
:042E0C0001000000C1
:04000005080016D900
:00000001FF
